:020000040C00EE
:1000000000C8FF1F010200089102000891020008C9
:10001000910200089102000891020008000000000F
:100020000000000000000000000000009102000835
:1000300091020008000000009102000891020008EF
:100040009102000891020008910200089102000844
:100050009102000891020008910200089102000834
:1000600091020008000000000000000000000000F5
:1000700091020008000000009102000891020008AF
:1000800091020008910200081D700008910200080A
:1000900091020008910200089102000891020008F4
:1000A000910200089102000800000000000000001A
:1000B0000000000000000000000000000000000040
:1000C0000000000000000000000000000000000030
:1000D0000000000000000000000000000000000020
:1000E00000000000000000009102000891020008DA
:1000F0009102000891020008910200089102000894
:100100009102000891020008910200080906000807
:1001100000000000000000000000000000000000DF
:1001200000000000000000000000000000000000CF
:100130009102000891020008910200089102000853
:1001400000000000000000000000000000000000AF
:100150009102000891020008000000000000000069
:100160009102000891020008910200089102000823
:100170009102000891020008910200089102000813
:100180009102000891020008910200089102000803
:1001900091020008813200087132000891020008C3
:1001A00091020008910200089102000891020008E3
:1001B00091020008910200089102000891020008D3
:1001C000000000000000000000000000000000002F
:1001D0000000000000000000910200080000000084
:1001E000910200089102000800000000910200083E
:1001F00000000000000000000000000000000000FF
:10020000DFF86CD01B4880471B4C1C4DAC4209DA10
:1002100021686268A368043BA2BFC858D050FAE7BF
:100220000C34F3E7164B174CA34208DA19685A68E6
:100230000020043AA4BF8850FBE70833F4E71248D3
:10024000804712488047000098C0010CE8CBFF1F90
:1002500068020000B0BC010C00C8FF1FE8030000EA
:1002600050CEFF1FDC5100002C20002000000000B9
:1002700000C8FF1FE90600084802000860020008E5
:1002800060020008700200083D7E0008CD040008EE
:10029000FEE7000080B582B000AF1823FB80BB1DD5
:1002A00003481946012202F08DFB0837BD4680BD88
:1002B000A8CCFF1F80B582B000AF78607B6845F6A0
:1002C000671293420DD8314B1B680A332F4A1360D3
:1002D0002E4B1B689BB21BB22D48194603F03EFB08
:1002E00051E07B6845F6562293420DD9274B1B6897
:1002F0000A3B264A1360254B1B689BB21BB224485D
:10030000194603F02BFB3EE07B6845F6D912934279
:100310001AD8204B1B6801331E4A13601B4B1B6805
:1003200001331A4A1360194B1B689BB21BB2184861
:10033000194603F013FB174B1B689BB21BB2164800
:10034000194603F00BFB1EE07B6845F6E41293426E
:1003500019D9104B1B68013B0E4A13600B4B1B68ED
:10036000013B0A4A1360094B1B689BB21BB2084849
:10037000194603F0F3FA074B1B689BB21BB2064801
:10038000194603F0EBFA0837BD4680BD50CEFF1F7B
:1003900064CDFF1F54CEFF1F98CDFF1F80B483B0E4
:1003A00000AF78600B46FB70FB7801229A407B68B7
:1003B0005A600C37BD465DF8047B704780B483B04B
:1003C00000AF78600B46FB70FB784FF480329A40A8
:1003D0007B685A600C37BD465DF8047B704700BFF0
:1003E00080B483B000AF78600B46FB70FB784FF0B1
:1003F00001129A407B685A600C37BD465DF8047B59
:10040000704700BF80B582B000AF78607B685A68E3
:100410007B681B7A10461946FFF7C0FF0837BD46B8
:1004200080BD00BF80B582B000AF78607B685A683D
:100430007B681B7A10461946FFF7C0FF0837BD4698
:1004400080BD00BF80B582B000AF78607B685A681D
:100450007B681B7A10461946FFF7C2FF0837BD4676
:1004600080BD00BF80B485B000AFF860B9607A602D
:100470007B681968FB68BA68A03243F82210143709
:10048000BD465DF8047B704780B483B000AF7860F0
:1004900039607B683A68C03253F8223018460C370E
:1004A000BD465DF8047B704780B483B000AF7860D0
:1004B00039607B683A68C03253F822309BB21846E4
:1004C0000C37BD465DF8047B704700BF80B582B035
:1004D00000AF03F055F80346FB71FB79012B00D107
:1004E000FEE73E483E4906F0D9FC3D4B5B7903F000
:1004F0000F03D9B23B4A937861F303039370374BF0
:10050000DA68374B5B7910461946364A01F0ACFE83
:10051000324BDA68334B9B78C3F30303DBB21046EC
:100520001946314AFFF79EFF2C4806F0EFFC2F4892
:100530002F4906F0B3FC2E4B5B7903F00F03D9B2C1
:10054000284A937861F303039370284BDA68284BA9
:100550005B7910461946234A01F086FE234BDA6880
:10056000204B9B78C3F30303DBB2104619461E4AA7
:10057000FFF778FF1D4806F0C9FCFFF78BFE1D4A08
:100580001C4B1B6843F4807313601B4A1A4B1B6897
:1005900043F48073136019484FF4806105F02AFF1B
:1005A00000F04EF8164801F0ABFF154842F210710A
:1005B00001F0E2FF124801F085FF124B1B78002B7F
:1005C00000D109E007F06CFC07F072FC0D4B002233
:1005D0001A700B4801F076FFEFE700BF08CEFF1F4F
:1005E000E8CBFF1F00CCFF1F58CEFF1F2CCEFF1FF4
:1005F000F4CBFF1F00C000400000014084CEFF1F6D
:1006000040CCFF1F5CCEFF1F80B500AF0948FFF74D
:1006100019FF094803F0B6FB03461A46074B1A6058
:10062000054803F0C7FB054B1B681846FFF742FE61
:1006300080BD00BF2CCDFF1F00CEFF1F60CEFF1F6F
:100640002DE9904383B000AF244B3B600023FB8037
:100650003CE0FC88386806F06FFE02460B46104608
:10066000194606F00BFD02460B4690469946FB885C
:10067000184606F04FFE02460B464046494606F035
:10068000AFFE02460B46104619464FF00002144BCF
:1006900006F0D0FF02460B461046194607F0B2F8A6
:1006A0000346184606F080F807EE100AF7EE007AC7
:1006B00077EEC77AB0EE007AC7EE877A094AA300D0
:1006C0001344C3ED007AFB880133FB80FB88B3F54C
:1006D000806FBED30C37BD46BDE89083922449405D
:1006E000000090409CEEFF1F98B500AF084A4FF005
:1006F000005314460FCB84E80F00064B064A07CA86
:1007000083E8070000F00AF806F028FA98BD00BF59
:10071000C45F0020D45F00208400002080B483B038
:1007200000AF72B6164B174A9A60BFF34F8F62B68E
:10073000134A134BD3F8883043F47003C2F888305F
:100740000F4A0F4B5B6923F0080353610E4B03F50F
:10075000805314331B687B607B6823F00F037B603E
:100760007B6843F002037B60074B03F5805314332F
:100770007A681A600C37BD465DF8047B704700BF8D
:1007800000ED00E0000000080010005880B584B0C3
:1007900000AF2F4BDB6803F48033002B3ED02D4B92
:1007A000DB6803F00103002B02D02B4BFB6002E05F
:1007B00006F0CAF9F860274B1B6803F00403002B0E
:1007C00020D0244B9B6803F070631B0E0133BB6089
:1007D000204B9B6803F4FE431B0A01337B601D4BD7
:1007E0009B6803F4FE031B0C01333B60BB683A6853
:1007F00002FB03F3FA68B2FBF3F37A6802FB03F33C
:10080000FB600DE0134B9B6803F07F0301333B60FB
:10081000FA683B68B2FBF3F3FB6001E00E4BFB6050
:100820000B4BDB68DBB20133FA68B2FBF3F3FB601E
:10083000074B1B6903F001030133FA68B2FBF3F3C2
:10084000FB60064AFB6813601037BD4680BD00BFE1
:10085000004600501047005000366E01C05F002077
:1008600080B485B000AFF8600B467A60FB72FB7A0B
:100870009B08DBB21846FB7A9B08DBB21A46FB6882
:10088000043253F82220FB7A03F00303DB001946FD
:10089000F8238B40DB4302EA0301FB68021D43F8A7
:1008A0002210FB685A6FFB7A5B00194603238B40CA
:1008B000DB431A40FB685A67FB68354A93420AD10A
:1008C000FB681A6EFB7A012101FA03F3DB431A403D
:1008D000FB681A663CE07B685A68FB7A9A40FB68C2
:1008E0005A60FB7ADB08DBB21846FB7ADB08DBB226
:1008F0001A46FB68103253F82220FB7A03F00703F4
:100900009B00194607238B40DB4302EA0301FB6887
:1009100000F1100243F82210FB7ADB08DBB2184624
:10092000FB7ADB08DBB21A46FB68103253F8222050
:100930007B681B7A1946FB7A03F007039B0001FAD8
:1009400003F342EA0301FB6800F1100243F82210AE
:10095000FB7A9B08DBB21846FB7A9B08DBB21A468F
:10096000FB68043253F822207B681B781946FB7A17
:1009700003F00303DB0001FA03F342EA0301FB681F
:10098000021D43F822101437BD465DF8047B704702
:10099000008E024880B400AF034B1B681846BD466A
:1009A0005DF8047B704700BFC05F002080B584B055
:1009B00000AF7860FFF7EAFE0B4B1B680B4AA2FB07
:1009C00003239A0C7B6802FB03F37B600023FB602C
:1009D00003E000BFFB680133FB60FA687B689A4262
:1009E000F7D31037BD4680BDC05F002083DE1B43B8
:1009F000B0B584B002AF7860002000F085F800F058
:100A000021FA7B68DB79002B01D000F045FA7B6886
:100A10005B7A184600F0F2F87B681B7A184600F003
:100A2000EBF97B681B7C184600F006F97B685B7C61
:100A3000184600F029F97B689B7C184600F010F9F5
:100A40007B68DB7C184600F033F97B689B79002BD0
:100A500001D000F05BFA7B68DB78002B02D100F05C
:100A600095FA14E000F082FA7B6899887B68DA785E
:100A70007B685B781D467B681B781C467B689B788F
:100A80000093084611462A46234600F08FFA7B68F9
:100A9000DB68B3F5803F03D14FF4803000F034F8C9
:100AA000FFF774FE0837BD46B0BD00BF80B485B007
:100AB00000AF78607B681B0FFB607B6823F070439E
:100AC000BB60084AFB6852F823300649FA6851F8BF
:100AD00022201168BA680A431A601437BD465DF8CF
:100AE000047B7047C87E000880B500AFFFF752FF57
:100AF0000246044B5B6903F0010322FA03F3184634
:100B000080BD00BF0046005080B483B000AF786065
:100B10000649064BDB6823F480327B681343CB60C5
:100B20000C37BD465DF8047B704700BF004600509F
:100B300080B483B000AF78600649064B9B6923F40C
:100B400080327B6813438B610C37BD465DF8047BB4
:100B5000704700BF0046005080B483B000AF78609B
:100B60000649064B5B6A23F440327B6813434B62B1
:100B70000C37BD465DF8047B704700BF004600504F
:100B800080B483B000AF0346FB80FB88002B08D104
:100B90000A4A0A4BDB6823F4807323F00103D36015
:100BA00007E0064A054BDB6843F4807343F001031A
:100BB000D3600C37BD465DF8047B7047104700508A
:100BC00080B483B000AF0346FB7100BF094BD3F87C
:100BD000C43003F00803002BF8D10749064BDB684B
:100BE00023F04002FB791343CB600C37BD465DF820
:100BF000047B7047004000500043005080B483B035
:100C000000AF0346FB7100BF094BD3F8C43003F0BB
:100C10000803002BF8D10749064BDB6823F080025C
:100C2000FB791343CB600C37BD465DF8047B7047FE
:100C3000004000500043005080B483B000AF7860A3
:100C40000649064BDB6823F0FF027B68013B134338
:100C5000CB600C37BD465DF8047B70470046005002
:100C600080B483B000AF78600649064B1B6A23F05E
:100C700001027B68013B13430B620C37BD465DF8F4
:100C8000047B70470046005080B483B000AF7860AA
:100C90000649064B1B6923F001027B68013B1343A5
:100CA0000B610C37BD465DF8047B70470046005071
:100CB00080B483B000AF78600649064B5B6923F0CF
:100CC00001027B68013B13434B610C37BD465DF865
:100CD000047B70470046005080B483B000AF78605A
:100CE0000649064B9B6923F007027B68013B1343CF
:100CF0008B610C37BD465DF8047B704700460050A1
:100D000080B483B000AF78600649064B5B6A23F07D
:100D1000FF027B68013B13434B620C37BD465DF815
:100D2000047B70470046005080B483B000AF034698
:100D3000FB71044AFB7953600C37BD465DF8047BB8
:100D4000704700BF0046005080B485B000AF7860A7
:100D50007B681B0FFB607B6823F07043BB60084A15
:100D6000FB6852F823300649FA6851F822201168CE
:100D7000BA680A431A601437BD465DF8047B7047B1
:100D8000D47E000880B483B000AF78603960194A1F
:100D9000184B5B6943F001035361164A154B5B69BD
:100DA00043F01003536113493B68013B1A027B680F
:100DB000013B1B0613434B610E4A0E4B5B6943F02C
:100DC000400353610B4A0B4B5B6923F010035361E3
:100DD000084A084B5B6943F48023536100BF054B0D
:100DE0001B6903F00403002BF9D00C37BD465DF8F6
:100DF000047B70471047005080B582B000AF0346B7
:100E0000FB710F4A0E4B5B6843F480135360FB7910
:100E1000012B0ED10A4A0A4B5B6823F480135360FE
:100E20006420FFF7C3FD064A054B5B6843F40023CB
:100E300053606420FFF7BAFD0837BD4680BD00BF90
:100E40001047005080B500AF114B1B6803F0010341
:100E5000002B0CD10E4A0E4B5B6843F0010353602C
:100E600000BF0B4B1B6803F00103002BF9D0094BAB
:100E70001B6803F40073002B08D0064A054B9B68DF
:100E800043F4007393609620FFF790FD80BD00BF90
:100E9000004200500044005080B500AF00BF194B25
:100EA000D3F8C43003F08003002BF8D1164A164B58
:100EB000DB6923F03003D36100BF124BD3F8C43099
:100EC00003F00803002BF8D10F4A0F4BDB6843F007
:100ED0000803D36000BF0B4BD3F8C43003F0020308
:100EE000002BF8D1084A084B5B6843F008035360B5
:100EF0003220FFF75BFD044B1B6803F00803002B57
:100F0000E8D180BD0040005000430050B0B500AFB4
:100F1000134A134B5B6823F480335360114D114B1C
:100F20005B6823F4702424F0300405F00DFE0246C3
:100F30000D4BA3FB02231B0D013B1B0423436B60E2
:100F4000074A074B5B6823F40033536000BF044B30
:100F50001B6803F46073B3F5607FF8D1B0BD00BFC8
:100F600010470050004700506BCA5F6B80B400AF61
:100F7000054A054B5B6823F4803323F0020353607A
:100F8000BD465DF8047B70471047005080B400AF49
:100F9000054A054B5B6843F4803343F0020353601A
:100FA000BD465DF8047B70471047005080B586B0A1
:100FB00000AFBA607B600346FB810B467B73FB8905
:100FC0001846FFF7DDFD7B7B012B40F09980FB8904
:100FD000002B08D105F0B8FD07EE900AF8EE677A0D
:100FE000C7ED057A01E0534B7B617B6807EE903AD1
:100FF000B8EE677AD7ED057A27EE277ABB6807EE59
:10100000903AF8EE677AC7EE277AC7ED057AD7ED02
:10101000057AFCEEE77A17EE902A474BA3FB0223F2
:101020005B0D3B61454A454B5B6843F001035360F0
:10103000424A424B5B6843F0100353603F493F4BC9
:101040009A683F4B13407A68013A12021A433B698F
:10105000013B1B041A43BB68013B1B0613438B6017
:10106000364A364B5B6843F040035360334A334B98
:101070005B6823F010035360304A304B5B6843F4E5
:101080008023536000BF2D4B1B6803F00403002B2B
:10109000F9D02A4A294B5B6823F00103536000BF53
:1010A000264B1B6803F00103002BF9D1D7ED057A1D
:1010B000FCEEE77A17EE903A1B0A224AA2FB0323C2
:1010C0009B0A3B613A6A3B699A4202D2386900F056
:1010D0003DF8D7ED057AFCEEE77A17EE903ADB099A
:1010E000194AA2FB0323DB0A3B613A6A3B699A4235
:1010F00002D2386900F02AF8386A00F027F815E0C3
:101100000E490E4B9B6823F07F023B6A013B134361
:101110008B600A4A094B5B6843F00103536000BFD0
:10112000064B1B6803F00103002BF9D01837BD46AE
:1011300080BD00BF001BB74B819F5E16104700505B
:10114000FF8080F0C7541E012FE3BE0080B582B03F
:1011500000AF78600749074B9B6823F4FE027B6869
:10116000013B1B0413438B603220FFF71FFC083741
:10117000BD4680BD1047005080B582B000AF78609A
:101180007B680C4A934208D14FF40060FFF7DCFD06
:101190004FF40060FFF78AFC09E07B68064A93423F
:1011A00005D10648FFF7D0FD0448FFF77FFC08375C
:1011B000BD4680BD080003400800024880000010C2
:1011C00080B582B000AF78601020FFF7ADFD786881
:1011D00000F0B2F9786800F0C3F90837BD4680BD69
:1011E00080B584B000AF78600B46FB707868FFF77D
:1011F000E7FF7B681B68FB60FB6823F44043FB60F0
:10120000FB789B03FA681343FB607B68FA681A60FB
:101210001037BD4680BD00BF80B483B000AF78609A
:1012200039603B681A687B685A613B685B79C3F335
:101230004013DBB21A057B685A603B681B79C3F325
:101240000303DBB21A467B685A623B685B79C3F3DF
:101250000303DBB21A467B681A623B685B79C3F30F
:101260000013DBB21A467B689A613B681B79C3F3B3
:101270000313DBB21A467B68DA620C37BD465DF8B1
:10128000047B704780B485B000AF78600B46FB707C
:101290007B685B68FB60FB6823F44043FB60FB7882
:1012A0009B03FA681343FB607B68FA685A60143743
:1012B000BD465DF8047B704780B485B000AF7860B0
:1012C0000B46FB707B685B68FB60FB6823F4407334
:1012D000FB60FB781B02FA681343FB607B68FA68CB
:1012E0005A601437BD465DF8047B704780B485B002
:1012F00000AF78600B46FB707B685B68FB60FB6847
:1013000023F44063FB60FB789B02FA681343FB60A5
:101310007B68FA685A601437BD465DF8047B7047F5
:1013200080B487B000AFF8600B467A60FB72FB6850
:101330001B687B61FB7A013BFB74FB7C5B00DBB2CF
:101340001033BB74BB7C032202FA03F3DB437A69DC
:1013500013407B617B685B781A46BB7C02FA03F31F
:101360007A6913437B61FB7C1633BB74BB7C01221F
:1013700002FA03F3DB437A6913407B617B689B7855
:101380001A46BB7C02FA03F37A6913437B61FB7C48
:101390005B00DBB21933BB74BB7C032202FA03F39C
:1013A000DB437A6913407B617B68DB781A46BB7C40
:1013B00002FA03F37A6913437B61FB7C9B00BB74E5
:1013C000BB7C0F2202FA03F3DB437A6913407B6193
:1013D0007B681B781A46BB7C02FA03F37A691343D5
:1013E0007B61FB687A691A601C37BD465DF8047B37
:1013F000704700BF80B483B000AF78600B46FB70CD
:10140000FB78002B06D17B685B6923F001027B68C7
:101410005A6105E07B685B6943F001027B685A61B1
:101420000C37BD465DF8047B704700BF80B485B0C3
:1014300000AF78600B46FB707B689B6AFB60FB68C3
:1014400023F47063FB60FB781B02FA681343FB60B4
:101450007B68FA689A62FA787B685A621437BD46EC
:101460005DF8047B704700BF80B483B000AF786044
:1014700039607B681A693B681A437B681A610C37CC
:10148000BD465DF8047B704780B487B000AF7860DC
:101490000B46FB701346BB707B68D3F8A830FB602B
:1014A000FB78092B2CD801A252F823F0D5140008A0
:1014B000D5140008DF140008DF1400080115000827
:1014C000011500080115000801150008E9140008BD
:1014D000F514000803233B6100237B6116E00C2315
:1014E0003B6102237B6111E04FF440733B610823B1
:1014F0007B610BE04FF440633B610A237B6105E0B5
:101500004FF440533B610C237B6100BF3B69DB43DD
:10151000FA681340FB60BA787B6902FA03F3FA6851
:101520001343FB607B68FA68C3F8A8201C37BD46EC
:101530005DF8047B704700BF80B582B000AF786073
:101540007B68064A934203D10420FFF7AFFA02E01A
:101550000820FFF7ABFA0837BD4680BD00C0004049
:1015600080B582B000AF78607B68064A934203D1B1
:101570000420FFF7E9FB02E00820FFF7E5FB08374E
:10158000BD4680BD00C0004080B483B000AF78602D
:101590000B46FB70F878FB787A68DB0013449B6895
:1015A00043F080727968C3000B449A600C37BD46E3
:1015B0005DF8047B704700BF80B483B000AF7860F3
:1015C0000B46FB70F878FB787A68DB0013445B68A5
:1015D00043F000527968C3000B445A600C37BD4693
:1015E0005DF8047B704700BF80B483B000AF7860C3
:1015F0000B46FB70F878FB787A68DB0013445B6875
:1016000023F000527968C3000B445A600C37BD4682
:101610005DF8047B704700BF80B483B000AF786092
:101620000B46FB7013463B80FB783A88796804339D
:101630009B000B445A600C37BD465DF8047B704735
:1016400080B483B000AF78600B46FB7013463B80DC
:101650007B68DA69FB781B01194640F6FF738B4003
:10166000DB4313403A88F97809018A401A437B68C2
:10167000DA610C37BD465DF8047B704780B485B0F5
:1016800000AFF8600B467A60FB72F87AFB7AFA6872
:10169000DB0013449B6823F4CE227B681A43F9686D
:1016A000C3000B449A601437BD465DF8047B704755
:1016B00080B485B000AFF8600B467A60FB72F87AB0
:1016C000FB7AFA68DB0013445B6823F4E0027B6872
:1016D0001A43F968C3000B445A601437BD465DF8DD
:1016E000047B704780B582B000AF78600448FFF794
:1016F0002BFB0348FFF7DAF90837BD4680BD00BF72
:101700002000001080B584B000AFF8600B467A600E
:10171000FB72F868FFF7E6FFFB7A7A681268F968EF
:10172000DB000B445A60FB7A7A685268F968DB0088
:101730000B449A60FB7A012B04D8FB7AF8681946AF
:10174000FFF722FF1037BD4680BD00BF80B586B0D1
:1017500000AFF8600B467A60FB72FFF7C5F90246EE
:101760007B68B2FBF3F33B613B690F2B02D8042388
:10177000FB7516E03B69B3F5801F02D30323FB75AD
:101780000FE0F87AFB7AFA68DB0013445B681B0D04
:101790001B053A691A43F968C3000B445A600023D9
:1017A000FB75FB7D18461837BD4680BD80B586B0F9
:1017B00000AFF8600B467A60FB72FB7AFA6804337C
:1017C0009B0013445B687B61FB68DB69FA7A12015A
:1017D000D340C3F30B033B613A697B69D31A0133EE
:1017E0007A6802FB03F3FA7AF86811461A46FFF7A3
:1017F000ADFF034618461837BD4680BD80B582B0A0
:1018000000AF78600B46FB70FB78786819464FF4A0
:101810008012FFF74DFF002318460837BD4680BDF4
:1018200080B586B000AFF8607A603B600B46FB7213
:101830000023FB75FB7AF86819460022FFF738FF92
:101840007B68002B07D1FB7AF86819463A68FFF7E6
:101850007DFF0346FB75FB7D002B0CD1FB7AF868FE
:1018600019467A68FFF70AFFFB7AF86819464FF4C1
:101870000012FFF71DFFFB7D18461837BD4680BDDF
:1018800080B586B000AFF860084611461A46034698
:10189000FB720B463B811346FB800023FB75FB7AF2
:1018A000F86819460022FFF703FFFA7A3B89F868C7
:1018B00011461A46FFF7B0FEFA7AFB88F86811461F
:1018C0001A46FFF7BDFEFB7AF86819463A6AFFF739
:1018D000D5FE3B6A002B07D1FB7AF86819467A6A75
:1018E000FFF764FF0346FB75FB7D002B06D1FB7AF7
:1018F000F86819464FF4A002FFF7DAFEFB7D1846A0
:101900001837BD4680BD00BF80B586B000AFF86017
:101910007A601A460B46FB721346BB720023FB75B6
:10192000FB7AF86819460022FFF7C2FE3B6A002BDB
:1019300009D17B6A5B01FA7AF86811461A46FFF70B
:1019400005FF0346FB75FB7D002B20D1FB7AF86871
:1019500019467A6800F050F8BB7A012B05D1FB7A62
:10196000F8681946FFF728FE04E0FB7AF868194684
:10197000FFF73AFEFB7AF86819463A6AFFF77EFEEF
:10198000FB7AF86819464FF44012FFF791FEFB7D91
:1019900018461837BD4680BD80B586B000AFF860E8
:1019A0007A603B600B46FB720023FB75FB7AF8689C
:1019B00019460022FFF77CFE7B68002B07D1FB7ADB
:1019C000F86819463A68FFF7C1FE0346FB75FB7DD0
:1019D000002B0CD1FB7AF86819467A68FFF74EFEA7
:1019E000FB7AF86819464FF48002FFF761FEFB7D31
:1019F00018461837BD4680BD80B487B000AFF86088
:101A00000B467A60FB727B681B783B6101237B612C
:101A100010E07A687B6913441B7819467A6913468B
:101A20009B00134401FA03F33A6913433B617B695A
:101A300001337B617B69052BEBD9FA7AFB680432B1
:101A4000396943F832107B6806331B783B61012308
:101A50007B6111E07B6906337A6813441B78194671
:101A60007A6913469B00134401FA03F33A6913435E
:101A70003B617B6901337B617B69052BEAD9FB7A8A
:101A8000FA680433DB0013443A695A601C37BD46D8
:101A90005DF8047B704700BF80B483B000AF78600E
:101AA0000B46FB701346BB707B685A6FFB785B007C
:101AB000194603238B40DB431A407B685A677B68D7
:101AC0005A6FBB78F97849008B401A437B685A6794
:101AD0000C37BD465DF8047B704700BF80B483B00F
:101AE00000AF78607B689B6BDBB223F07F03DBB2D7
:101AF00018460C37BD465DF8047B704780B483B050
:101B000000AF786039607B68DA6C3B681A437B68A9
:101B1000DA640C37BD465DF8047B704780B582B04F
:101B200000AF78603960786800F094F83B681B7902
:101B3000002B06D13B681B6878681946022200F02A
:101B4000C3F87B680E4A5A637B684FF4A2629A63BB
:101B50003B681B79002B07D13B685B7943F00B0393
:101B6000DBB21A467B68DA637B684FF0FF32DA64D7
:101B70003B68DB881A467B681A640837BD4680BD1F
:101B800002013F0780B483B000AF786039607B68A2
:101B9000DB6B23F47F027B68DA637B68DA6B3B687C
:101BA0001A437B68DA630C37BD465DF8047B7047E7
:101BB00080B582B000AF78600B467B8013467B70A7
:101BC0007B681B6C23F0C0027B789B01DBB21A435D
:101BD0007B681A647B68D3F8083103F0E063002B5C
:101BE00014D100BF7868FFF779FF0346DBB25BB220
:101BF000002BF7DB78684FF40051FFF77FFF7A780E
:101C000079887B68203243F8221005E07A78798859
:101C10007B68603243F822100837BD4680BD00BFA4
:101C200080B485B000AF78607B68D3F80C3103F0E6
:101C3000E063002B03D17B685B6DFB8103E07B6875
:101C4000D3F81C31FB81FB8918461437BD465DF87B
:101C5000047B704780B582B000AF78607B68144A1F
:101C6000934203D07B68134A934203D11248FFF793
:101C700083FA0AE07B68114A934203D07B68104ADA
:101C8000934202D10F48FFF777FA7B680322DA60AC
:101C900000BF7B68DB6803F00103002BF9D07B6891
:101CA0001B6C23F00F027B681A640837BD4680BDA9
:101CB0000000034000020340080003400000024807
:101CC000000202480800024880B58EB000AFF860FC
:101CD000B9607A60BB68632B58D97B68002B55D0FC
:101CE000FEF702FF02462E4BA3FB02235B093B6279
:101CF000BB682B4AA2FB03235B09BB600123FB6289
:101D00000123BB6240F2FF337B6240F2FF333B634F
:101D100022E03B6A3A6B02FB03F2BB68796801FB85
:101D200003F3B2FBF3F3FB61FB699B0ABB61FB6945
:101D3000C3F309037B61BB69B3F5806F09D27A698C
:101D40007B6A9A4205D27B697B62BB69BB623B6B53
:101D5000FB623B6B013B3B633B6B002BD9D1FB6AC6
:101D600043F40042FB681A61FB685A690D4B13404B
:101D70007A68013A92021A43BB6A013B1B041A4378
:101D8000FB685A61002387F8373002E0012387F8A7
:101D9000373097F8373018463837BD4680BD00BF1A
:101DA0001F85EB51EF8000FC80B485B000AFF86078
:101DB000B9603B601346FB71FB68D3F8083123F030
:101DC000E062FB68C3F80821FB68D3F80821094BDF
:101DD00013403A681102BA681143FA7912060A43AD
:101DE0001A43FB68C3F808211437BD465DF8047B2D
:101DF000704700BFC0C0FFF880B485B000AFF86086
:101E00000B467A60FB72FB68D3F80C3123F0E0627A
:101E1000FB68C3F80C21FB68D3F80C3123F47C5227
:101E20007B681B021A43FB7A1B061A43FB68C3F844
:101E30000C211437BD465DF8047B704780B485B033
:101E400000AFF8600B467A60FB72FB689A69FB7A18
:101E5000072101FA03F3DB431A40FB7A796801FAA0
:101E600003F31A43FB689A611437BD465DF8047B9F
:101E7000704700BF80B485B000AFF8600B467A6051
:101E8000FB72FB68D3F80821FB7A072101FA03F300
:101E9000DB431A40FB7A796801FA03F31A43FB68C3
:101EA000C3F808211437BD465DF8047B704700BFB6
:101EB00080B485B000AF786039603B78C3F302032B
:101EC000DBB21A467B88C3F309039BB21B0413439E
:101ED000FB607B68FA68C3F8F021FB78C3F300135A
:101EE000DBB21A07FB78C3F38103DBB29B061A430C
:101EF000FB78C3F34013DBB25B071343FB60FB7853
:101F0000C3F38013DBB29B07FA681343FB607B6863
:101F1000D3F8F021FB68134343F000427B68C3F819
:101F2000F0211437BD465DF8047B704780B483B060
:101F300000AF78607B68D3F8843043F080727B68B0
:101F4000C3F884200C37BD465DF8047B704700BFA2
:101F500080B483B000AF78607B68D3F8843023F01E
:101F600080727B68C3F884200C37BD465DF8047B23
:101F7000704700BF80B500AF0120FEF7E5FE0120ED
:101F8000FEF794FD80BD00BF80B582B000AF7860E1
:101F90003960FFF7EFFF3B685A697B681A603B685E
:101FA0005B6843F400427B68C3F880203B689A6812
:101FB0007B68C3F8A0203B68DA687B68C3F8A4207C
:101FC0003B681A697B68C3F880223B681A687B68A3
:101FD000C3F8B8200837BD4680BD00BF80B485B0C7
:101FE00000AF78607B68D3F8803043F000427B68B4
:101FF000C3F880200023FB7316E0FB7B0E4A52F8E7
:102000002330BB60BB68D3F8803003F44033002B2F
:1020100007D000BFBB68D3F8803003F08053002B9B
:10202000F8D1FB7B0133FB73FB7B012BE5D9143724
:10203000BD465DF8047B7047E07E000880B582B045
:1020400000AF786039603B687868596800220023E7
:1020500000F028F83B68786859680122002300F0F6
:1020600021F83B68786899680022012300F01AF88B
:102070003B68786899680122012300F013F83B68F7
:102080001A697B68C3F880203B68DA687B68C3F80C
:10209000B8203B6878681968FFF70AFF0837BD4623
:1020A00080BD00BF80B48DB000AFF860B9603B6008
:1020B0001346FB71FB79002B13D10823FB624FF40D
:1020C000E0637B620023BB621F233B623B7AC3F366
:1020D0000403DBB2FB617B7AC3F30203DBB2FB7662
:1020E00013E01823FB624FF0E0637B621023BB62B6
:1020F0004FF4F8133B62BB7AC3F30403DBB2FB611A
:10210000FB7AC3F30203DBB2FB76FB683A68283242
:1021100053F822307B617B6ADB437A6913407B6131
:10212000FA7EFB6A02FA03F37A6913437B613B6A26
:10213000DB437A6913407B61BB6AFA6902FA03F3F5
:102140007A6913437B61FB683A682832796943F8FE
:1021500022103437BD465DF8047B704780B485B0EB
:1021600000AF78600B46FB707B68D3F88030FB6073
:10217000FB6823F00303FB60FB78FA681343FB6002
:102180007B68FA68C3F880201437BD465DF8047B8D
:10219000704700BF80B584B000AF78603960786860
:1021A000FFF7D6FE7B68D3F88430FB60FB6823F032
:1021B0000303FB603B681B78C3F38103DBB21A4661
:1021C000FB681343FB603B681B7803F00303DBB23F
:1021D000002B03D0FB6843F00803FB607B68FA68C0
:1021E000C3F884203B685B6843F0802343F400031A
:1021F0007A68C2F800313B689B6843F001027B6853
:10220000C3F804213B681B7803F00303DBB2022B05
:1022100007D17B68D3F8043143F480327B68C3F87C
:1022200004217868FFF782FE1037BD4680BD00BFED
:1022300080B485B000AF78600B46FB707B68D3F844
:10224000C031FB60FB6823F00F03FB60FB78FA688A
:102250001343FB607B68FA68C3F8C0211437BD469E
:102260005DF8047B704700BF80B489B000AFF860B0
:10227000B9607A607B681B7BBB61FB68D3F88830F0
:102280007B61BB68012202FA03F3DB437A691340E6
:102290007B61BB68BA6902FA03F37A6913437B6115
:1022A000FB687A69C3F888207B685B7B5BB2002B94
:1022B00029DB0023FB61BB68012B0AD10823FB61EA
:1022C000FB68D3F8B03023F4F852FB68C3F8B020B1
:1022D0000CE0BB68002B09D10023FB61FB68D3F83D
:1022E000B03023F01F02FB68C3F8B020FB68D3F8BE
:1022F000B0307A68527B51B2FA6901FA02F21A439D
:10230000FB68C3F8B020FB68D3F8C8207B685B6823
:102310001A43FB68C3F8C820FB68D3F8D0207B6859
:102320009B681A43FB68C3F8D0207B681968FB6878
:10233000BA68803243F822102437BD465DF8047B2A
:10234000704700BF80B485B000AF786039607B68AB
:102350003A68803253F8223003F470231B0CFB736D
:10236000FB7B18461437BD465DF8047B704700BF01
:1023700080B400AFBD465DF8047B704780B483B085
:1023800000AF78600B46FB707B68DA68FB78012150
:1023900001FA03F31A437B68DA600C37BD465DF837
:1023A000047B704780B483B000AF78607B689B6823
:1023B00003F00103002B14BF01230023DBB21846F6
:1023C0000C37BD465DF8047B704700BF80B483B016
:1023D00000AF78607B680122DA600C37BD465DF89B
:1023E000047B704780B483B000AF78607B681B6962
:1023F00043F001027B681A610C37BD465DF8047B2F
:10240000704700BF80B483B000AF78607B681B6901
:1024100043F002027B681A610C37BD465DF8047B0D
:10242000704700BF80B483B000AF78600B467B80FC
:102430007A887B685A630C37BD465DF8047B704729
:1024400080B483B000AF78600B467B807A887B686D
:10245000DA630C37BD465DF8047B704780B483B007
:1024600000AF78600B46FB707B68D3F8A420FB7844
:10247000012101FA03F31A437B68C3F8A4200C3747
:10248000BD465DF8047B704780B584B000AF7860CE
:102490000023FB737B6893F8263083F00103DBB2E3
:1024A000002B09D07B6893F82130002B04D1786889
:1024B00000F014F90346FB73FB7B18461037BD464A
:1024C00080BD00BF80B584B000AF78607B6893F8B2
:1024D0002630002B0CD07B6893F82130002B04D1E0
:1024E0007B685B691846FFF771FF0023FB7301E00F
:1024F0000123FB73FB7B18461037BD4680BD00BF30
:1025000080B584B000AF7860786800F01DF80346AD
:10251000002B11D07B6893F82630002B0CD07B6801
:1025200093F82130002B04D17B685B691846FFF7D4
:1025300059FF0023FB7301E00123FB73FB7B18466B
:102540001037BD4680BD00BF80B584B000AF786055
:102550000023FB737B6893F82130002B06D17B6846
:102560005B691846FFF71EFF0346FB73FB7B1846AB
:102570001037BD4680BD00BFF0B587B000AF7860B2
:1025800039600123FB757868FFF7DEFF034683F0AF
:102590000103DBB2002B79D07B689A683B689A42D2
:1025A00074D87B685A683B689A426FD300233B61BA
:1025B00002E03B6901333B617B685B683A69C2F1C9
:1025C0000F0223FA02F23B689A42F2D37B6893F837
:1025D0002130002B5AD17B681B691B68FB607B682C
:1025E000DA693B69DBB203F00F03D9B2137961F307
:1025F000030313713B6818464FF00001FB681A464D
:102600004FF0000302FB01FE00FB03F67644A0FB43
:102610000223F1180B467968C9690979C1F30301EE
:10262000C9B2C1F12006A1F1200022FA01F403FA97
:1026300006F6344323FA00F0044323FA01F520465A
:10264000294615A3D3E9002305F02CF902460B46D1
:1026500092B27B685A847B685B8C012B05D97B68BE
:102660005B8C013B9AB27B685A847B685A697B68B1
:10267000DB691B79C3F30303DBB210461946FEF78F
:10268000D5FE786800F076F80023FB75FB7D1846D0
:102690001C37BD46F0BD00BF00E1F505000000009D
:1026A00080B584B000AF78607B6893F82630002B4B
:1026B0000CD07B6893F82130002B04D17B685B69D8
:1026C0001846FFF79FFE0023FB7301E00123FB7315
:1026D000FB7B18461037BD4680BD00BF80B584B077
:1026E00000AF78607B681B69184600F0A7FE0346C0
:1026F000FB737B681B699A687B681B7E10461946D2
:10270000FFF73CFE7B685A697B68DB691046194617
:10271000FEF782FD786800F02DF87B6893F825308D
:10272000002B0FD07B685A697B6893F820301046E5
:1027300000211A46FEF7A8FE7B685B691846002157
:10274000FFF78CFE7B685B691846FFF75BFE7B68D2
:10275000012283F826207B6893F82430002B04D0D4
:102760007B685B691846FFF731FEFB7B1846103724
:10277000BD4680BD80B582B000AF78607B685A6985
:102780007B685B8C10461946FFF74CFE7B685B69E3
:1027900018460021FFF754FE7B681B699A687B6826
:1027A000DB6810461946FEF75FFE0837BD4680BD60
:1027B00080B483B000AF786039607B681A6C3B6886
:1027C0001A437B681A640C37BD465DF8047B70477A
:1027D00080B483B000AF786039607B681A6C3B6866
:1027E000DB431A407B681A640C37BD465DF8047BF6
:1027F000704700BF80B483B000AF78607B689B6B8C
:10280000DBB223F07F03DBB218460C37BD465DF820
:10281000047B704780B483B000AF78607B681B6D29
:1028200003F4C04318460C37BD465DF8047B70477F
:1028300080B483B000AF786039607B689A6E3B6883
:102840004FF4803101FA03F31A437B689A660C3720
:10285000BD465DF8047B704780B483B000AF7860FC
:1028600039607B68D3F808213B681A437B68C3F85A
:1028700008210C37BD465DF8047B704780B483B0F7
:1028800000AF786039607B68D3F808213B68DB4390
:102890001A407B68C3F808210C37BD465DF8047BFD
:1028A000704700BF80B483B000AF78607B68D3F816
:1028B000183143F400427B68C3F818210C37BD4639
:1028C0005DF8047B704700BF80B483B000AF7860D0
:1028D0007B68D3F8143103F48053002B14BF012319
:1028E0000023DBB218460C37BD465DF8047B704709
:1028F00080B483B000AF78607B68D3F8143103F400
:102900000063002B14BF01230023DBB218460C37F1
:10291000BD465DF8047B704780B483B000AF78603B
:1029200039607B68D3F80C213B68DB431A407B6835
:10293000C3F80C210C37BD465DF8047B704700BF1F
:1029400080B483B000AF78607B68D3F8143103F0B3
:102950000803002B14BF01230023DBB218460C37F9
:10296000BD465DF8047B704780B582B000AF7860EB
:102970000B46FB70FB7823F00403DBB278684FF65C
:10298000FF711A46FFF714F90837BD4680BD00BF36
:1029900080B584B000AF7860094801F037F803468D
:1029A000FB73FB7B002B05D17B685B685B689847FA
:1029B0000023FB73FB7B18461037BD4680BD00BF6C
:1029C000C4CDFF1F80B588B000AFF860B9607A60F1
:1029D0000223FB77FB689B687B61BB68002B4CD0B4
:1029E0007B68002B49D07B699B7F83F00103DBB2BE
:1029F000002B41D0FB689B689B68082B02D90223FF
:102A0000BB6101E00123BB617B69BA685A61BB69A4
:102A1000013B1A467B6803FA02F27B691A607B6904
:102A200000225A607B6901229A77FB685B6893F801
:102A30007C30002B0CD0FB681B681846FFF732FF78
:102A4000FB681B6818464FF08041FFF705FF06E062
:102A5000FB681B6818464FF40051FFF7A9FE0023DE
:102A6000FB77FB681A68FB685B6893F88630104652
:102A70001946FFF7DDFE02E001E00323FB77FB7F51
:102A800018462037BD4680BD80B584B000AF786061
:102A900039607B689B68FB6000237B813DE0FB68BD
:102AA0001A69FB68DB689A4218D27B681B68184673
:102AB000FFF7B6F803467B81FB689A69FB681B69E0
:102AC0001A4407F10A03104619463A6805F0DCF982
:102AD000FB681A693B681A44FB681A61FB681A694B
:102AE000FB68DB689A4218D1FB680022DA77FB6842
:102AF000002283F820207B681B6818464FF0C041F5
:102B0000FFF70AFF7B685B685B6F002B04D07B6874
:102B10005B685B6F98470BE00AE07B681B681846B0
:102B2000FFF70EFF034683F00103DBB2002BB6D1A3
:102B30001037BD4680BD00BF80B586B000AF78605D
:102B40007B689B683B613B695A683B691B689A429A
:102B500080F089807B689B689B68082B02D90223E0
:102B60007B6101E001237B610023FB817B685B6863
:102B700093F87C30002B45D038E03B695A683B69BC
:102B80001B689A4230D23B6993F82030002B0ED05C
:102B90007B681A683B691B7F10461946FFF7E4FE05
:102BA0003B695A687B691A443B695A601EE03B697D
:102BB0005A693B695B68134407F10E0210461946D7
:102BC0007A6905F061F93B695A687B691A443B6987
:102BD0005A607B681968FA893B691B7F0846114671
:102BE0001A46FEF7E5FF01E000BF78E07B681B684E
:102BF0001846FFF769FE034683F00103DBB2002BA2
:102C0000BBD16CE03B6993F82030002B0ED07B6881
:102C10001A683B691B7F10461946FFF7A5FE3B6902
:102C20005A687B691A443B695A6058E03B695A69A3
:102C30003B695B68134407F10E02104619467A6936
:102C400005F022F93B695A687B691A443B695A606E
:102C50007B681968FA893B691B7F084611461A464A
:102C6000FEF7A6FF3BE07B681B681846FFF740FEB7
:102C70000346002B33D07B685B6893F87C30002BD5
:102C800007D07B681B6818464FF08041FFF7F6FDC0
:102C900006E07B681B6818464FF40051FFF798FD6B
:102CA00000BF7B681B681846FFF7A4FD0346802B16
:102CB000F7D03B6900229A773B6900225A617B6812
:102CC0005B681B6F002B0AD03B69DB7F83F001033D
:102CD000DBB2002B03D07B685B681B6F984718370B
:102CE000BD4680BD80B586B000AF78607B689B68CC
:102CF0003B610023FB817B689B689B68082B02D9A2
:102D000002237B6101E001237B617B685B6893F8B0
:102D10007D30002B13D078687969FFF7B5FE3B69E9
:102D20001A693B69DB689A427BD23B69DA683B6986
:102D30001B69D31A7868194600F076F871E07B6851
:102D40001B681846FFF766FD034603F40053002B8B
:102D50001ED03B691A693B69DB689A4218D27B68CE
:102D60001B681846FEF75CFF0346FB813B699A69C6
:102D70003B691B691A4407F10E03104619467A692C
:102D800005F082F83B691A697B691A443B691A614C
:102D90007B681B681846FFF73DFD034603F480433C
:102DA000002B1ED03B691A693B69DB689A4218D236
:102DB0007B681B681846FEF733FF0346FB813B69BF
:102DC0009A693B691B691A4407F10E0310461946BC
:102DD0007A6905F059F83B691A697B691A443B69BD
:102DE0001A613B691A693B69DB689A4219D17B68B1
:102DF0001B6818464FF44041FFF7EAFC3B6900228C
:102E0000DA773B69002283F820203B6900229A612F
:102E10007B685B685B6F002B03D07B685B685B6FD4
:102E200098471837BD4680BD80B584B000AF786044
:102E300039607B685B6893F87D30002B28D03B6855
:102E4000002B25D07B685B6893F87D301A46012300
:102E50009340BB607B689B689B68082B02D93B68EA
:102E60005B083B603A68BB689A4203D23B68013B0F
:102E7000FB6002E0BB68013BFB607B681A687B6813
:102E80005B6893F87D3010461946FA68FEF7B4FF88
:102E90001037BD4680BD00BF80B400AF044BDB6877
:102EA00003F4E0631B0A1846BD465DF8047B7047D7
:102EB00000ED00E080B483B000AF0346FB71084929
:102EC00097F907305B09FA7902F01F02012000FA36
:102ED00002F241F823200C37BD465DF8047B7047B1
:102EE00000E100E080B483B000AF03463960FB71BD
:102EF00097F90730002B0BDA0D49FB7903F00F032C
:102F0000043B3A68D2B29200D2B20B441A7609E07E
:102F1000084997F907303A68D2B29200D2B20B440E
:102F200083F800230C37BD465DF8047B704700BF73
:102F300000ED00E000E100E080B489B000AFF8608F
:102F4000B9607A60FB6803F00703FB61FB69C3F1BA
:102F50000703062B28BF0623BB61FB690633062B3C
:102F600002D9FB69013B00E000237B61BB690122C0
:102F700002FA03F3013B1A46BB681A407B699A4088
:102F80007B69012101FA03F3013B19467B680B4081
:102F9000134318462437BD465DF8047B704700BFD5
:102FA00080B483B000AF78600B46FB701346BB70F3
:102FB000F878FB787A6806339B0013445B6823F04B
:102FC0000702BB781A437968831D9B000B445A6043
:102FD0000C37BD465DF8047B704700BF80B483B0FA
:102FE00000AF78600B46FB707B685B6B23F0706210
:102FF000FB78013B1B061A437B685A630C37BD46BE
:103000005DF8047B704700BF80B483B000AF786088
:103010000B46FB707B685B6B23F47C12FB78013BF7
:103020001B041A437B685A630C37BD465DF8047B6A
:10303000704700BF80B485B000AFF860B9607A60B7
:10304000FB685B6923F05042BB681A437B681A43F4
:10305000FB685A611437BD465DF8047B704700BFBA
:1030600080B483B000AF78600B46FB707B681B6C4C
:1030700023F00F02FB781A437B681A640C37BD46B5
:103080005DF8047B704700BF80B582B000AF786008
:1030900078680121FFF7E4FF0837BD4680BD00BF17
:1030A00080B483B000AF78607B685B6B43F0010253
:1030B0007B685A630C37BD465DF8047B704700BFE0
:1030C00080B483B000AF786039607B685B6923F4BB
:1030D000FE423B68013B9B02134343F480727B68D2
:1030E0005A610C37BD465DF8047B704780B584B0EB
:1030F00000AFF860B9607A60F868B9687A68FFF77D
:1031000099FF1037BD4680BD80B582B000AF7860B2
:103110000B46FB70FB7878681946FFF75FFF0837AE
:10312000BD4680BD80B582B000AF78600B46FB70B5
:10313000FB7878681946FFF767FF0837BD4680BD02
:1031400080B582B000AF78600B46FB701346BB7051
:10315000FB787A6806339B00134410225A60FA7891
:10316000BB78786811461A46FFF71AFF0837BD4644
:1031700080BD00BF80B500AF37483849FEF7CEFCB0
:103180003548FFF78DFF34481021FFF7BDFF324867
:103190001021FFF7C7FF304800210022FFF7A6FFEC
:1031A0002D480221FFF78CFF2B4800210122FFF759
:1031B000C7FF2948FFF768FF29480521294AFDF77D
:1031C0004FFB274805210022FEF766FC2448042116
:1031D000254AFDF745FB22480321244AFDF740FB21
:1031E0001D484FF48031FEF7CDFC1B480821012219
:1031F000FEF724FE18480C210122FEF71FFE164898
:10320000002103220123FEF7CFFD134810210222E3
:10321000FEF730FEFFF740FE034618463F2100222E
:10322000FFF78AFE034656201946FFF75BFEFFF7BD
:1032300033FE034618463E210022FFF77DFE03467B
:1032400055201946FFF74EFE5620FFF733FE552056
:10325000FFF730FE80BD00BF000203407CCCFF1FA3
:103260000082024868CCFF1FF87E0008147F000827
:1032700080B500AF0148FFF75FFC80BDA8CCFF1F01
:1032800080B500AF0148FFF72DFD80BDA8CCFF1F22
:1032900080B400AF044BDB6803F4E0631B0A1846FC
:1032A000BD465DF8047B704700ED00E080B483B05C
:1032B00000AF0346FB71084997F907305B09FA79BB
:1032C00002F01F02012000FA02F241F823200C371D
:1032D000BD465DF8047B704700E100E080B483B038
:1032E00000AF03463960FB7197F90730002B0BDA0A
:1032F0000D49FB7903F00F03043B3A68D2B2920008
:10330000D2B20B441A7609E0084997F907303A68B7
:10331000D2B29200D2B20B4483F800230C37BD46E0
:103320005DF8047B704700BF00ED00E000E100E0C5
:1033300080B489B000AFF860B9607A60FB6803F0D0
:103340000703FB61FB69C3F10703062B28BF0623B4
:10335000BB61FB690633062B02D9FB69013B00E028
:1033600000237B61BB69012202FA03F3013B1A4689
:10337000BB681A407B699A407B69012101FA03F31B
:10338000013B19467B680B40134318462437BD4662
:103390005DF8047B704700BF80B582B000AF7860F5
:1033A0007B681B785BB21846FFF780FF0837BD4685
:1033B00080BD00BF90B585B000AF7860164800F0C2
:1033C00025FB0346FB73FB7B002B1ED17B681C781F
:1033D000FFF75EFF01467B685B781A467B689B7847
:1033E000084611461A46FFF7A3FF024663B2184685
:1033F0001146FFF773FF7B68DB78002B02D07868FB
:10340000FFF7CAFF0023FB7301E00123FB73FB7B83
:1034100018461437BD4690BDC4CDFF1F80B483B09D
:1034200000AF78607B68DB6843F480727B68DA60A9
:103430000C37BD465DF8047B704700BF80B582B095
:1034400000AF78607B685B7B83F00103DBB2002B0D
:103450000FD07B689A687B681B7B10461946FDF786
:10346000BFFE7B689B681846FFF7D8FF7B68012288
:103470005A73002318460837BD4680BD80B483B018
:1034800000AF786039607B68D3F880203B681033E8
:10349000194601238B401A437B68C3F880200C3700
:1034A000BD465DF8047B704780B584B000AF78609E
:1034B0007B681B7C022B49D17B68DA687B689B6840
:1034C00010461946FEF760FD0023FB602FE07B6885
:1034D000FA6853F8223019687B68FA6853F822308A
:1034E0005B6808461946FEF7A9FD7B68FA6853F841
:1034F00022301B6818460321FEF730FE7B68FA680D
:1035000053F822301B7A83F00103DBB2002B05D085
:103510007B68DB681846F968FFF7B0FF7B68FA68DC
:1035200053F8223000225A72FB680133FB60FB68BB
:10353000012BCCD97B685B7C002B04D07B68DB68DB
:103540001846FEF74BFD7B6800221A747B681B7CD3
:1035500018461037BD4680BD80B582B000AF786098
:103560007B6859687B681A7A7B681B680846114635
:103570001A46FDF775F9002318460837BD4680BD89
:1035800080B582B000AF0023FB71FB79002B04D122
:103590003848FFF7E1FF0346FB71FB79002B04D1AC
:1035A0003548FFF7D9FF0346FB71FB79002B04D1A7
:1035B0003248FFF7D1FF0346FB71FB79002B04D1A2
:1035C0002F48FEF761FF0346FB71FB79002B04D106
:1035D0002C48FFF7EFFE0346FB71FB79002B04D16B
:1035E0002948FFF7B9FF0346FB71FB79002B04D193
:1035F000264800F079F90346FB71FB79002B04D1D2
:10360000234800F071F90346FB71FB79002B04D1CC
:103610002048FFF7BDF90346FB71FB79002B04D16D
:103620001D48FEF731FF0346FB71FB79002B04D1E7
:103630001A48FFF791FF0346FB71FB79002B04D179
:10364000174800F089FB0346FB71FB79002B04D17E
:10365000144803F0AFFB0346FB71FB79002B04D148
:10366000114803F0A7FB0346FB71FB7918460837A6
:10367000BD4680BDFCCCFF1F14CDFF1F2CCDFF1F0E
:1036800018CCFF1FB47F000844CDFF1F64CDFF1F7F
:1036900098CDFF1FA8CCFF1F40CCFF1F50CDFF1FB0
:1036A00000CEFF1F08CEFF1F2CCEFF1F80B483B0BB
:1036B00000AF78607B689B6843F400427B689A6047
:1036C0000C37BD465DF8047B704700BF80B483B003
:1036D00000AF78600B46FB7013463B80FB783A885E
:1036E000796804339B000B445A600C37BD465DF883
:1036F000047B704780B485B000AFF8600B467A60F9
:10370000FB72F87AFB7AFA68DB0013445B6823F4F7
:10371000E0027B681A43F968C3000B445A6014370F
:10372000BD465DF8047B704780B483B000AF78601D
:103730000B46FB70F878FB787A68DB0013445B6813
:1037400043F080427968C3000B445A600C37BD4691
:103750005DF8047B704700BF80B483B000AF786031
:103760000B46FB701346BB70F878FB787A68DB0079
:1037700013449B6823F00F02BB781A437968C30097
:103780000B449A600C37BD465DF8047B704700BF60
:10379000B0B586B002AF78600023FB737B689B688E
:1037A000B3F5401F15D17B6818687B6893F8221029
:1037B0007B685D6A7B681C7C7B68DA687B685B6918
:1037C000009201932A462346FEF79EF80346FB73B8
:1037D00085E07B689B68B3F5801F15D17B681A680C
:1037E0007B6893F8223010461946FEF707F8034627
:1037F000FB737B681A687B6893F822301046194681
:103800000022FFF763FF6AE07B689B68B3F5001F47
:1038100025D17B6818687B6893F822107B68DA688A
:103820007B685B69FDF7FCFF0346FB737B6893F8DD
:103830002030012B08D17B681A687B6893F822300E
:1038400010461946FFF770FF7B681A687B6893F88B
:103850002230104619460022FFF738FF3FE07B6810
:103860009B68B3F5A00F25D17B6818687B6893F837
:1038700022107B681D8B7B685C8B7B68DA687B68B9
:103880005B69009201932A462346FDF7F9FF034640
:10389000FB737B6819687B6893F822207B685B6800
:1038A0001B79C3F30303DBB2084611461A46FFF740
:1038B00053FF14E07B689B68B3F5800F0DD17B68E4
:1038C00018687B6893F822107B68DA687B685B690C
:1038D000FEF762F80346FB7301E00023FB73FB7BFA
:1038E00018461037BD46B0BD80B584B000AF7860D3
:1038F0000023FB737B6819687B6893F822207B6840
:103900005B68084611461A46FDF7FCFE7868FFF72B
:103910003FFF0346BB737B6893F82830002B09D127
:103920007B681A687B6893F822301046194600229B
:10393000FFF7E0FE7B6893F82130012B04D17B6810
:103940001B681846FFF7B2FEBB7B002B01D001239A
:10395000FB73FB7B18461037BD4680BD80B584B035
:1039600000AF78600B467B800023BB81B7F9023043
:10397000B3F5006F1EDAB7F9023013F5006F19DDE9
:10398000B7F90230002B05DA7B8803F580539BB230
:10399000BB8101E07B88BB817B6819687B6893F8F9
:1039A0002220BB89084611461A46FFF78FFE0023E6
:1039B000FB7301E00223FB73FB7B18461037BD4607
:1039C00080BD00BF80B485B000AF78607B6803F035
:1039D0000703FB600C4BDB68BB60BA684FF6FF0364
:1039E0001340BB60FB681A02BB68134343F0BF631C
:1039F00043F40033BB60044ABB68D3601437BD4650
:103A00005DF8047B704700BF00ED00E080B584B036
:103A100000AF78607B681B7983F00103DBB2002B79
:103A20000BD07B681B681B781846FFF7CBFF7B68C1
:103A300001221A710023FB7301E00023FB73FB7B5F
:103A400018461037BD4680BD80B483B000AF7860A3
:103A50000B46FB707B68DA68FB78012101FA03F3FF
:103A60001A437B68DA600C37BD465DF8047B70470B
:103A700080B483B000AF78607B689B6803F001037B
:103A8000002B14BF01230023DBB218460C37BD46C0
:103A90005DF8047B704700BF80B483B000AF7860EE
:103AA0007B680122DA600C37BD465DF8047B704705
:103AB00080B483B000AF78607B681B6943F002027A
:103AC0007B681A610C37BD465DF8047B704700BF08
:103AD00080B483B000AF78600B467B807A887B68C7
:103AE0005A630C37BD465DF8047B704780B483B0E1
:103AF00000AF78600B467B807A887B68DA630C378E
:103B0000BD465DF8047B704780B483B000AF786039
:103B10007B681B6F9BB218460C37BD465DF8047B73
:103B2000704700BF80B483B000AF78600B46FB7075
:103B30007B68D3F8A420FB78012101FA03F31A4330
:103B40007B68C3F8A4200C37BD465DF8047B704742
:103B500080B584B000AF78607B6893F82530FB7344
:103B6000FB7B022B40F0B4807B681B681846FFF794
:103B700065FC0346FB737B689B6818460021FDF7D4
:103B800039FC7B689B6818460121FDF77BFB7B684D
:103B90009A687B68DB68104601211A46FDF7C0FB76
:103BA0007B689B7F002B0ED07B689A687B681B69C3
:103BB000104602211A46FDF7B3FB7B689B68184646
:103BC0000221FDF793FB7B68DB7F002B12D07B6823
:103BD00099687B68DA7F7B685B69084611461A46FC
:103BE000FDF79EFB7B689A687B68DB7F1046194671
:103BF000FDF762FB7B689B6818464FF6FF71FFF785
:103C000067FF7B689A687B689B8B10461946FFF7B5
:103C10006DFF7B685A687B689B6910461946FDF703
:103C200023FC7B6893F82830002B09D07B689A68C6
:103C30007B6893F82030104602211A4600F074F891
:103C40007B6893F82930002B09D07B689A687B68E1
:103C500093F82130104600211A4600F065F87B6881
:103C600093F82A30002B09D07B689A687B6893F818
:103C70002230104608211A4600F056F87B6893F867
:103C80002B30002B09D07B689A687B6893F823302F
:103C9000104609211A4600F047F87B6893F82C304B
:103CA000002B09D07B689A687B6893F82430104613
:103CB0000A211A4600F038F87B68002283F8252094
:103CC0007B6893F82D30002B02D0786800F006F85E
:103CD000FB7B18461037BD4680BD00BF80B582B063
:103CE00000AF78607B6893F82530002B18D17B6893
:103CF0009B681846FFF7BCFE034683F00103DBB266
:103D0000002B0DD07B685A687B6893F827301046EB
:103D10001946FFF799FE7B689B681846FFF7BCFEC3
:103D20000837BD4680BD00BF80B582B000AF786067
:103D30000B46FB701346BB70FB7878681946FFF79B
:103D4000F1FEFA78BB78786811461A46FDF79CFBBD
:103D50000837BD4680BD00BF80B584B000AF786035
:103D60000123FB737B681B78002B06D17B685B68A3
:103D70001846FFF7EDFE0346FB73FB7B1846103732
:103D8000BD4680BD80B584B000AF78600023FB8164
:103D90007B681B78002B07D17B685B689B681846A3
:103DA000FFF7B2FE0346FB81FB8918461037BD467C
:103DB00080BD00BF80B582B000AF78607B681B78A3
:103DC000002B05D17B685B689B681846FFF770FE87
:103DD0000837BD4680BD00BF4B1C012B98BF704704
:103DE0002DE9F003911C9B08B1F80480B1F8029012
:103DF0000A8831F802CC8044814402448444D9F8D2
:103E00000070D8F800601568DCF80040C9F8006060
:103E1000C8F80070CCF800501460D9F80470D8F8D5
:103E200004605568DCF80440C9F80460C8F8047000
:103E3000CCF8045054600831013BD5D1BDE8F00303
:103E400070474B1C012B98BF70472DE9F003911C64
:103E50009B08B1F80480B1F802900A8831F802CCCE
:103E600000EB580800EB590900EB520200EB5C0C28
:103E7000D9F80070D8F800601568DCF80040C9F87F
:103E80000060C8F80070CCF8005014600831013BA5
:103E9000DFD1BDE8F003704780B5A0B000AF786017
:103EA00039607B681B88BB66BB6E9B003A68134415
:103EB0007B677B685B683B673B687B667B6F3B66C9
:103EC000BB6E5B08BB66BB6E9B003A681344FB6726
:103ED000BB6E9B007A6F1344BB67BB6E9B08FB668F
:103EE000B6E13B681B68BB633B685B68FB633B6890
:103EF0009B683B643B68DB687B647B6F1B68BB62D1
:103F00007B6F5B68FB627B6F9B683B637B6FDB68EF
:103F10007B63FB6F1B68BB61FB6F5B68FB61FB6FC7
:103F20009B683B62FB6FDB687B62BB6F1B68BB609F
:103F3000BB6F5B68FB60BB6F9B683B61BB6FDB6803
:103F40007B613B681A1D3A6097ED0E7AD7ED0A7ACD
:103F500077EE277AC3ED007A3B681A1D3A6097ED39
:103F60000F7AD7ED0B7A77EE277AC3ED007A3B68AC
:103F70001A1D3A6097ED107AD7ED0C7A77EE277A12
:103F8000C3ED007A3B681A1D3A6097ED117AD7EDC0
:103F90000D7A77EE277AC3ED007A97ED0E7AD7ED9A
:103FA0000A7A77EE677AC7ED0A7A97ED0F7AD7ED3E
:103FB0000B7A77EE677AC7ED0B7A97ED107AD7ED2B
:103FC0000C7A77EE677AC7ED0C7A97ED117AD7ED18
:103FD0000D7A77EE677AC7ED0D7AFB6F1A1DFA67D7
:103FE00097ED067AD7ED027A77EE277AC3ED007A5D
:103FF000FB6F1A1DFA6797ED077AD7ED037A77EE14
:10400000277AC3ED007AFB6F1A1DFA6797ED087ADD
:10401000D7ED047A77EE277AC3ED007AFB6F1A1D8D
:10402000FA6797ED097AD7ED057A77EE277AC3ED2F
:10403000007A97ED027AD7ED067A77EE677AC7EDC8
:10404000027A97ED037AD7ED077A77EE677AC7EDB4
:10405000037A97ED047AD7ED087A77EE677AC7EDA1
:10406000047A97ED057AD7ED097A77EE677AC7ED8E
:10407000057A3B6F1A1D3A671B68FB653B6F1A1D7B
:104080003A671B68BB6597ED0A7AD7ED177A67EE3A
:10409000277AC7ED157A97ED0B7AD7ED167A67EE8A
:1040A000277AC7ED147A97ED0B7AD7ED177A67EE7A
:1040B000277AC7ED137A97ED0A7AD7ED167A67EE6D
:1040C000277AC7ED127A7B6F1A1D7A6797ED157AFA
:1040D000D7ED147A77EE277AC3ED007A7B6F1A1D3D
:1040E0007A6797ED137AD7ED127A77EE677AC3ED98
:1040F000007A97ED027AD7ED167A67EE277AC7ED48
:10410000157A97ED037AD7ED177A67EE277AC7ED20
:10411000147A97ED037AD7ED167A67EE277AC7ED12
:10412000137A97ED027AD7ED177A67EE277AC7ED03
:10413000127ABB6F1A1DBA6797ED157AD7ED147A0C
:1041400077EE677AC3ED007ABB6F1A1DBA6797EDF9
:10415000137AD7ED127A77EE277AC3ED007A3B6FA8
:104160001A1D3A671B68FB653B6F1A1D3A671B688F
:10417000BB6597ED0C7AD7ED177A67EE277AC7ED16
:10418000157A97ED0D7AD7ED167A67EE277AC7ED97
:10419000147A97ED0D7AD7ED177A67EE277AC7ED87
:1041A000137A97ED0C7AD7ED167A67EE277AC7ED7A
:1041B000127A7B6F1A1D7A6797ED157AD7ED147A0C
:1041C00077EE277AC3ED007A7B6F1A1D7A6797ED39
:1041D000137AD7ED127A77EE677AC3ED007A97ED0E
:1041E000047AD7ED167A67EE277AC7ED157A97ED40
:1041F000057AD7ED177A67EE277AC7ED147A97ED2F
:10420000057AD7ED167A67EE277AC7ED137A97ED20
:10421000047AD7ED177A67EE277AC7ED127ABB6F6B
:104220001A1DBA6797ED157AD7ED147A77EE677A8B
:10423000C3ED007ABB6F1A1DBA6797ED137AD7EDFD
:10424000127A77EE277AC3ED007AFB6E013BFB66AC
:10425000FB6E002B7FF445AEBB6E9AB27B685B6849
:10426000786E11461A46022300F0E6FEBB6E9AB243
:104270007B685B68386E11461A46022300F0DCFE4C
:104280008037BD4680BD00BF80B5ACB000AF786060
:1042900039607B681B885B089BB2C7F88030D7F811
:1042A00080309B003A681344C7F89030D7F88030CC
:1042B0009B00D7F890201344C7F88C30D7F8803093
:1042C0009B00D7F88C201344C7F888303B68FB6705
:1042D000D7F89030BB67D7F88C307B67D7F8883039
:1042E0003B67D7F89030043BC7F8AC30D7F88C3038
:1042F000043BC7F8A830D7F88830043BC7F8A4308F
:10430000D7F880309B00D7F8A4201344C7F8A0301A
:104310007B685B68C7F89430D7F89430C7F898305A
:10432000D7F89830C7F89C30D7F880305B08C7F8CA
:1043300080300223FB660423BB6606237B663B6852
:1043400093ED007AD7F88C30D3ED007A77EE277AA8
:10435000C7ED187A3B6893ED007AD7F88C30D3ED2F
:10436000007A77EE677AC7ED177A3B68043393EDEE
:10437000007AD7F88C300433D3ED007A77EE277AC1
:10438000C7ED167A3B68043393ED007AD7F88C308A
:104390000433D3ED007A77EE677AC7ED157AD7F854
:1043A0009030043393ED007AD7ED177A37EE277A01
:1043B000D7F888300433D3ED007A77EE677AC7ED0B
:1043C0000B7AD7F89030D3ED007A97ED157A37EE67
:1043D000677AD7F88830D3ED007A77EE277AC7ED81
:1043E0000C7AD7F89030D3ED007A97ED187A37EE43
:1043F000677AD7F88830D3ED007A77EE677AC7ED21
:10440000077AD7F890300433D3ED007A97ED167A17
:1044100037EE677AD7F888300433D3ED007A77EE39
:10442000677AC7ED087AD7F890300433D3ED007A75
:1044300097ED177A37EE677AD7F888300433D3EDE3
:10444000007A77EE277AC7ED037AD7F8903093EDAC
:10445000007AD7ED157A37EE277AD7F88830D3ED82
:10446000007A77EE677AC7ED047A3B681A1D3A60E6
:10447000D7F8902092ED007AD7ED187A37EE277AA8
:10448000D7F88820D2ED007A77EE277AC3ED007A4C
:104490003B681A1D3A60D7F89020043292ED007AFA
:1044A000D7ED167A37EE277AD7F888200432D2ED86
:1044B000007A77EE277AC3ED007AD7F890301A1D8C
:1044C000C7F89020FA6A1A60D7F890301A1DC7F81A
:1044D00090203A6B1A60D7F88C301A1DC7F88C20E0
:1044E000FA691A60D7F88C301A1DC7F88C203A6A1E
:1044F0001A60D7F888301A1DC7F88820FA681A6041
:10450000D7F888301A1DC7F888203A691A60FB6E00
:104510009B00D7F89C201344C7F89C30BB6E9B00CF
:10452000D7F898201344C7F898307B6E9B00D7F8D3
:1045300094201344C7F89430D7F88030023B5B08CE
:10454000C7F884301AE33B6893ED007AD7F88C30D3
:10455000D3ED007A77EE277AC7ED187A3B6893EDB2
:10456000007AD7F88C30D3ED007A77EE677AC7ED12
:10457000177A3B68043393ED007AD7F88C30043314
:10458000D3ED007A77EE277AC7ED167A3B680433CD
:1045900093ED007AD7F88C300433D3ED007A77EEC0
:1045A000677AC7ED157AD7F89030043393ED007A27
:1045B000D7ED177A37EE277AD7F888300433D3ED62
:1045C000007A77EE677AC7ED0B7AD7F89030D3EDA3
:1045D000007A97ED157A37EE677AD7F88830D3ED01
:1045E000007A77EE277AC7ED0C7AD7F89030D3EDC2
:1045F000007A97ED187A37EE677AD7F88830D3EDDE
:10460000007A77EE677AC7ED077AD7F890300433EF
:10461000D3ED007A97ED167A37EE677AD7F88830BF
:104620000433D3ED007A77EE677AC7ED087AD7F8CE
:1046300090300433D3ED007A97ED177A37EE677A2E
:10464000D7F888300433D3ED007A77EE277AC7EDB8
:10465000037AD7F8903093ED007AD7ED157A37EEDC
:10466000277AD7F88830D3ED007A77EE677AC7EDEE
:10467000047A3B681A1D3A60D7F8902092ED007AD0
:10468000D7ED187A37EE277AD7F88820D2ED007A5E
:1046900077EE277AC3ED007A3B681A1D3A60D7F8A7
:1046A0009020043292ED007AD7ED167A37EE277A11
:1046B000D7F888200432D2ED007A77EE277AC3ED5E
:1046C000007AD7F8AC30043B93ED007AD7F8A430E9
:1046D000043BD3ED007A77EE277AC7ED167AD7F848
:1046E000AC30043B93ED007AD7F8A430043BD3ED13
:1046F000007A77EE677AC7ED157AD7F8AC3093ED8C
:10470000007AD7F8A430D3ED007A77EE277AC7ED98
:10471000187AD7F8AC3093ED007AD7F8A430D3EDFF
:10472000007A77EE677AC7ED177AD7F8A83093ED5D
:10473000007AD7F8A030D3ED007A37EE677AD7ED5C
:10474000157A77EE277AC7ED0D7AD7F8AC3093ED6E
:10475000007AD7F8A430D3ED007A37EE677AD7F82D
:10476000A830043BD3ED007A37EE677AD7F8A03053
:10477000043BD3ED007A77EE277AC7ED0E7AD7F8AF
:10478000A830043BD3ED007A97ED167A37EE677ABE
:10479000D7F8A030043BD3ED007A77EE677AC7ED07
:1047A000097AD7F8A830D3ED007A97ED187A37EE6A
:1047B000677AD7F8A030D3ED007A77EE677AC7ED45
:1047C0000A7AD7F8A83093ED007AD7F8A030D3ED65
:1047D000007A37EE677AD7ED157A77EE677AC7ED0C
:1047E000057AD7F8A030043B93ED007AD7F8A830CB
:1047F000043BD3ED007A37EE677AD7ED177A77EE80
:10480000677AC7ED067AD7F8AC301A1FC7F8AC2024
:10481000D7F8A82092ED007AD7ED187A37EE277AEC
:10482000D7F8A020D2ED007A77EE277AC3ED007A90
:10483000D7F8AC301A1FC7F8AC20D7F8A820043A34
:1048400092ED007AD7ED167A37EE277AD7F8A020C6
:10485000043AD2ED007A77EE277AC3ED007AD7F8E2
:104860009C301A1DC7F89C201B683B65D7F89C300C
:104870001A1DC7F89C201B68FB6497ED0B7AD7EDD7
:10488000147A67EE277AC7ED127A97ED0C7AD7ED96
:10489000137A67EE277AC7ED117A97ED0C7AD7ED88
:1048A000147A67EE277AC7ED107A97ED0B7AD7ED79
:1048B000137A67EE277AC7ED0F7AD7F890301A1D72
:1048C000C7F8902097ED127AD7ED117A77EE277A14
:1048D000C3ED007AD7F890301A1DC7F8902097EDF5
:1048E000107AD7ED0F7A77EE677AC3ED007A97EDFD
:1048F0000E7AD7ED137A67EE277AC7ED127A97ED25
:104900000D7AD7ED147A67EE277AC7ED117A97ED15
:104910000D7AD7ED137A67EE277AC7ED107A97ED07
:104920000E7AD7ED147A67EE277AC7ED0F7AD7F8AB
:10493000A8301A1FC7F8A82097ED127AD7ED117A80
:1049400077EE677AC3ED007AD7F8A8301A1FC7F858
:10495000A82097ED107AD7ED0F7A77EE277AC3ED7E
:10496000007AD7F898301B683B65D7F898305B68B9
:10497000FB64BB6E9B00D7F898201344C7F89830AF
:1049800097ED077AD7ED147A67EE277AC7ED127A9A
:1049900097ED087AD7ED137A67EE277AC7ED117A8B
:1049A00097ED087AD7ED147A67EE277AC7ED107A7B
:1049B00097ED077AD7ED137A67EE277AC7ED0F7A6E
:1049C000D7F88C301A1DC7F88C2097ED127AD7EDE6
:1049D000117A77EE277AC3ED007AD7F88C301A1D5A
:1049E000C7F88C2097ED107AD7ED0F7A77EE677ABB
:1049F000C3ED007AD7ED0A7AB1EE677AD7ED147A73
:104A000067EE277AC7ED127A97ED097AD7ED137A18
:104A100067EE277AC7ED117A97ED097AD7ED147A08
:104A200067EE277AC7ED107A97ED0A7AD7ED137AF9
:104A300067EE277AC7ED0F7AD7F8A4301A1FC7F8A8
:104A4000A42097ED127AD7ED117A77EE677AC3ED4D
:104A5000007AD7F8A4301A1FC7F8A42097ED0F7A70
:104A6000D7ED107A77EE677AC3ED007AD7F89430F5
:104A70001B683B65D7F894305B68FB647B6E9B00DA
:104A8000D7F894201344C7F8943097ED037AD7ED04
:104A9000147A67EE277AC7ED127A97ED047AD7ED8C
:104AA000137A67EE277AC7ED117A97ED047AD7ED7E
:104AB000147A67EE277AC7ED107A97ED037AD7ED6F
:104AC000137A67EE277AC7ED0F7AD7F888301A1D68
:104AD000C7F8882097ED127AD7ED117A77EE277A0A
:104AE000C3ED007AD7F888301A1DC7F8882097EDF3
:104AF000107AD7ED0F7A77EE677AC3ED007A97EDEB
:104B0000067AD7ED137A67EE277AC7ED127A97ED1A
:104B1000057AD7ED147A67EE277AC7ED117A97ED0B
:104B2000057AD7ED137A67EE277AC7ED107A97EDFD
:104B3000067AD7ED147A67EE277AC7ED0F7AD7F8A1
:104B4000A0301A1FC7F8A02097ED127AD7ED117A7E
:104B500077EE677AC3ED007AD7F8A0301A1FC7F84E
:104B6000A02097ED107AD7ED0F7A77EE277AC3ED74
:104B7000007AD7F88430013BC7F88430D7F8843006
:104B8000002B7FF4E0AC3B6893ED007AD7F88C30D3
:104B9000D3ED007A77EE277AC7ED187A3B6893ED6C
:104BA000007AD7F88C30D3ED007A77EE677AC7EDCC
:104BB000177A3B68043393ED007AD7F88C300433CE
:104BC000D3ED007A77EE277AC7ED167A3B68043387
:104BD00093ED007AD7F88C300433D3ED007A77EE7A
:104BE000677AC7ED157AD7F89030043393ED007AE1
:104BF000D7ED177A37EE277AD7F888300433D3ED1C
:104C0000007A77EE677AC7ED0B7AD7F89030D3ED5C
:104C1000007A97ED157A37EE677AD7F88830D3EDBA
:104C2000007A77EE277AC7ED0C7AD7F89030D3ED7B
:104C3000007A97ED187A37EE677AD7F88830D3ED97
:104C4000007A77EE677AC7ED077AD7F890300433A9
:104C5000D3ED007A97ED167A37EE677AD7F8883079
:104C60000433D3ED007A77EE677AC7ED087AD7F888
:104C700090300433D3ED007A97ED177A37EE677AE8
:104C8000D7F888300433D3ED007A77EE277AC7ED72
:104C9000037AD7F8903093ED007AD7ED157A37EE96
:104CA000277AD7F88830D3ED007A77EE677AC7EDA8
:104CB000047A3B681A1D3A60D7F8902092ED007A8A
:104CC000D7ED187A37EE277AD7F88820D2ED007A18
:104CD00077EE277AC3ED007A3B681A1D3A60D7F861
:104CE0009020043292ED007AD7ED167A37EE277ACB
:104CF000D7F888200432D2ED007A77EE277AC3ED18
:104D0000007AD7F89C301B683B65D7F89C305B680D
:104D1000FB6497ED0B7AD7ED147A67EE277AC7ED2F
:104D2000127A97ED0C7AD7ED137A67EE277AC7EDF2
:104D3000117A97ED0C7AD7ED147A67EE277AC7EDE2
:104D4000107A97ED0B7AD7ED137A67EE277AC7EDD5
:104D50000F7AD7F890301A1DC7F8902097ED127A85
:104D6000D7ED117A77EE277AC3ED007AD7F8903035
:104D70001A1DC7F8902097ED107AD7ED0F7A77EECD
:104D8000677AC3ED007AD7F898301B683B65D7F88F
:104D900098305B68FB6497ED077AD7ED147A67EE7D
:104DA000277AC7ED127A97ED087AD7ED137A67EE76
:104DB000277AC7ED117A97ED087AD7ED147A67EE66
:104DC000277AC7ED107A97ED077AD7ED137A67EE59
:104DD000277AC7ED0F7AD7F88C301A1DC7F88C20C8
:104DE00097ED127AD7ED117A77EE277AC3ED007A34
:104DF000D7F88C301A1DC7F88C2097ED107AD7EDB4
:104E00000F7A77EE677AC3ED007AD7F894301B6893
:104E10003B65D7F894305B68FB6497ED037AD7ED78
:104E2000147A67EE277AC7ED127A97ED047AD7EDF8
:104E3000137A67EE277AC7ED117A97ED047AD7EDEA
:104E4000147A67EE277AC7ED107A97ED037AD7EDDB
:104E5000137A67EE277AC7ED0F7AD7F888301A1DD4
:104E6000C7F8882097ED127AD7ED117A77EE277A76
:104E7000C3ED007AD7F888301A1DC7F8882097ED5F
:104E8000107AD7ED0F7A77EE677AC3ED007AD7F80C
:104E900080309AB27B685B68F86F11461A4604232B
:104EA00000F0CAF8D7F880309AB27B685B68B86FB8
:104EB00011461A46042300F0BFF8D7F880309AB2A2
:104EC0007B685B68786F11461A46042300F0B4F8DB
:104ED000D7F880309AB27B685B68386F11461A4603
:104EE000042300F0A9F8B037BD4680BD80B588B076
:104EF00000AFF860B96011461A460B46FB711346C5
:104F0000BB71FB681B887B61FB79012B17D1BB68E8
:104F10000433BB610023FB610DE0BB69D3ED007A74
:104F2000F1EE677ABB69C3ED007ABB690833BB61F8
:104F3000FB690133FB61FA697B699A42EDD37B69B6
:104F4000B3F5807F24D0B3F5807F0BD8202B1FD002
:104F5000202B02D8102B16D02AE0402B1DD0802BFE
:104F600011D025E0B3F5806F0DD0B3F5806F03D875
:104F7000B3F5007F11D01BE0B3F5006F08D0B3F597
:104F8000805F0AD014E0F868B968FEF785FF0FE08B
:104F9000F868B968FFF778F90AE07B699AB2FB68AC
:104FA0005B68B86811461A46012300F045F800BF57
:104FB000BB79002B08D0FB689A89FB689B68B868AE
:104FC00011461A46FEF708FFFB79012B30D17B69A9
:104FD00007EE903AF8EE677AB7EE007AC7EE277AD6
:104FE000C7ED047ABB68BB610023FB611CE0BB69B1
:104FF0001A1DBA6193ED007AD7ED047A67EE277A2D
:10500000C3ED007ABB69D3ED007AB1EE677AD7EDD4
:10501000047A67EE277ABB69C3ED007ABB69043373
:10502000BB61FB690133FB61FA697B699A42DED39C
:105030002037BD4680BD00BF80B4BDB000AFF86072
:105040007A601A460B467B8113463B81094BC7F8B1
:10505000DC307B89C7F8E430D7F8E430C7F8D830C3
:10506000D7F8E430DB08C7F8E4300023C7F8E830AD
:1050700002E000BFF304353FD7F8E820D7F8E4306A
:105080001344C7F8D430D7F8D420D7F8E430134409
:10509000C7F8D030D7F8D020D7F8E4301344C7F899
:1050A000CC30D7F8CC20D7F8E4301344C7F8C83058
:1050B000D7F8C820D7F8E4301344C7F8C430D7F87D
:1050C000C420D7F8E4301344C7F8C030D7F8C02064
:1050D000D7F8E4301344C7F8BC30D7F8E830DB0029
:1050E000FA68134493ED007AD7F8C830DB00FA6809
:1050F0001344D3ED007A77EE277AC7ED2E7AD7F8EE
:10510000E830DB00FA68134493ED007AD7F8C83032
:10511000DB00FA681344D3ED007A77EE677AC7EDC7
:105120002D7AD7F8D430DB00FA68134493ED007A77
:10513000D7F8C430DB00FA681344D3ED007A77EE79
:10514000277AC7ED2C7AD7F8D430DB00FA681344FD
:1051500093ED007AD7F8C430DB00FA681344D3ED3E
:10516000007A77EE677AC7ED2B7AD7F8D030DB007C
:10517000FA68134493ED007AD7F8C030DB00FA6880
:105180001344D3ED007A77EE277AC7ED2A7AD7F861
:10519000D030DB00FA68134493ED007AD7F8C030C2
:1051A000DB00FA681344D3ED007A77EE677AC7ED37
:1051B000297AD7F8CC30DB00FA68134493ED007AF3
:1051C000D7F8BC30DB00FA681344D3ED007A77EEF1
:1051D000277AC7ED287AD7F8CC30DB00FA68134479
:1051E00093ED007AD7F8BC30DB00FA681344D3EDB6
:1051F000007A77EE677AC7ED277A97ED2E7AD7EDAA
:105200002A7A77EE677AC7ED267A97ED2E7AD7ED70
:105210002A7A77EE277AC7ED2E7A97ED2C7AD7ED9A
:10522000287A77EE677AC7ED2A7A97ED2C7AD7ED50
:10523000287A77EE277AC7ED2C7AD7F8E830DB00AA
:10524000FA68134497ED2E7AD7ED2C7A77EE277A09
:10525000C3ED007AD7F8C830DB00FA68134497ED45
:105260002E7AD7ED2C7A77EE677AC3ED007AD7F8ED
:10527000E830DB000433FA68134493ED007AD7F882
:10528000C830DB000433FA681344D3ED007A77EEBC
:10529000277AC7ED2E7AD7F8E830DB000433FA68B6
:1052A000134493ED007AD7F8C830DB000433FA6872
:1052B0001344D3ED007A77EE677AC7ED257AD7F8F5
:1052C000D430DB000433FA68134493ED007AD7F846
:1052D000C430DB000433FA681344D3ED007A77EE70
:1052E000277AC7ED2C7AD7F8D430DB000433FA687C
:1052F000134493ED007AD7F8C430DB000433FA6826
:105300001344D3ED007A77EE677AC7ED247AD7F8A5
:10531000D030DB000433FA68134493ED007AD7F8F9
:10532000C030DB000433FA681344D3ED007A77EE23
:10533000277AC7ED237AD7F8D030DB000433FA6838
:10534000134493ED007AD7F8C030DB000433FA68D9
:105350001344D3ED007A77EE677AC7ED227AD7F857
:10536000CC30DB000433FA68134493ED007AD7F8AD
:10537000BC30DB000433FA681344D3ED007A77EED7
:10538000277AC7ED287AD7F8CC30DB000433FA68E7
:10539000134493ED007AD7F8BC30DB000433FA688D
:1053A0001344D3ED007A77EE677AC7ED217A97ED53
:1053B0002E7AD7ED237A77EE677AC7ED207A97EDCC
:1053C0002E7AD7ED237A77EE277AC7ED2E7A97EDEE
:1053D0002C7AD7ED287A77EE677AC7ED237A97EDA6
:1053E0002C7AD7ED287A77EE277AC7ED2C7AD7F882
:1053F000E830DB000433FA68134497ED2E7AD7EDDA
:105400002C7A77EE277AC3ED007AD7F8C830DB0024
:105410000433FA68134497ED2E7AD7ED2C7A77EEA1
:10542000677AC3ED007AD7F8D030DB00FA6813440E
:1054300097ED267AD7ED237A77EE277AC3ED007AB7
:10544000D7F8C030DB00FA68134497ED267AD7ED21
:10545000237A77EE677AC3ED007AD7F8D030DB0095
:105460000433FA68134497ED207AD7ED2A7A77EE61
:10547000677AC3ED007AD7F8C030DB000433FA68EE
:10548000134497ED207AD7ED2A7A77EE277AC3ED89
:10549000007A97ED2B7AD7ED277A37EE677AD7ED3A
:1054A000377A67EE277AC7ED2E7A97ED2B7AD7ED0C
:1054B000277A37EE277AD7ED377A67EE277AC7ED66
:1054C0002B7A97ED247AD7ED217A37EE677AD7EDEC
:1054D000377A67EE277AC7ED2C7A97ED247AD7EDE5
:1054E000217A37EE277AD7ED377A67EE277AC7ED3C
:1054F000247A97ED2D7AD7ED2E7A77EE677AC7ED7D
:10550000267A97ED2D7AD7ED2E7A77EE277AC7EDAA
:105510002D7A97ED297AD7ED2B7A77EE677AC7ED5A
:10552000277A97ED297AD7ED2B7A77EE277AC7ED90
:10553000297A97ED257AD7ED2C7A77EE677AC7ED41
:10554000207A97ED257AD7ED2C7A77EE277AC7ED7A
:10555000257A97ED227AD7ED247A77EE677AC7ED30
:10556000217A97ED227AD7ED247A77EE277AC7ED64
:10557000227AD7F8D430DB00FA68134497ED2D7AFD
:10558000D7ED227A77EE277AC3ED007AD7F8BC30D0
:10559000DB00FA68134497ED2D7AD7ED227A77EE87
:1055A000677AC3ED007AD7F8C430DB00FA68134499
:1055B00097ED267AD7ED217A77EE277AC3ED007A38
:1055C000D7F8CC30DB00FA68134497ED267AD7ED94
:1055D000217A77EE677AC3ED007AD7F8D430DB0012
:1055E0000433FA68134497ED257AD7ED297A77EEDC
:1055F000677AC3ED007AD7F8BC30DB000433FA6871
:10560000134497ED257AD7ED297A77EE277AC3ED03
:10561000007AD7F8C430DB000433FA68134497EDFE
:10562000207AD7ED277A77EE677AC3ED007AD7F83C
:10563000CC30DB000433FA68134497ED207AD7EDC1
:10564000277A77EE277AC3ED007AD7F8E820D7F8E3
:10565000D8301344C7F8E8307A89D7F8E8309A424E
:105660003FF60AADD7F8E430072B01D800F0E2BCD2
:105670000023C7F8EC300123C7F8E0303A89D7F8A7
:10568000EC301344FB67FB6FC7F8EC30D7F8EC2025
:10569000FB6F1344BB67BA6FFB6F13447B677A6F72
:1056A000FB6F13443B673A6FFB6F1344FB66FA6E64
:1056B000FB6F1344BB66BA6EFB6F13447B66D7F86F
:1056C000EC30DB007A6813441B683B66BB6FDB0081
:1056D0007A6813441B68FB657B6FDB007A681344B0
:1056E0001B68BB653B6FDB007A6813441B687B65F6
:1056F000FB6EDB007A6813441B683B65BB6EDB0006
:105700007A6813441B68FB647B6EDB007A68134481
:105710001B68BB64D7F8EC30DB0004337A681344B1
:105720001B687B64BB6FDB0004337A6813441B681F
:105730003B647B6FDB0004337A6813441B68FB63B4
:105740003B6FDB0004337A6813441B68BB63FB6E5A
:10575000DB0004337A6813441B687B63BB6EDB0099
:1057600004337A6813441B683B637B6EDB000433AD
:105770007A6813441B68FB62D7F8E030C7F8E8305A
:10578000D7F8E820D7F8E4301344C7F8D430D7F876
:10579000D420D7F8E4301344C7F8D030D7F8D0205D
:1057A000D7F8E4301344C7F8CC30D7F8CC20D7F87A
:1057B000E4301344C7F8C830D7F8C820D7F8E4302D
:1057C0001344C7F8C430D7F8C420D7F8E4301344E2
:1057D000C7F8C030D7F8C020D7F8E4301344C7F872
:1057E000BC30D7F8E830DB00FA68134493ED007A58
:1057F000D7F8C830DB00FA681344D3ED007A77EEAF
:10580000277AC7ED2E7AD7F8E830DB00FA68134420
:1058100093ED007AD7F8C830DB00FA681344D3ED73
:10582000007A77EE677AC7ED2D7AD7F8D430DB00AF
:10583000FA68134493ED007AD7F8C430DB00FA68B5
:105840001344D3ED007A77EE277AC7ED2C7AD7F898
:10585000D430DB00FA68134493ED007AD7F8C430F3
:10586000DB00FA681344D3ED007A77EE677AC7ED70
:105870002B7AD7F8D030DB00FA68134493ED007A26
:10588000D7F8C030DB00FA681344D3ED007A77EE26
:10589000277AC7ED2A7AD7F8D030DB00FA681344AC
:1058A00093ED007AD7F8C030DB00FA681344D3EDEB
:1058B000007A77EE677AC7ED297AD7F8CC30DB002B
:1058C000FA68134493ED007AD7F8BC30DB00FA682D
:1058D0001344D3ED007A77EE277AC7ED287AD7F80C
:1058E000CC30DB00FA68134493ED007AD7F8BC3073
:1058F000DB00FA681344D3ED007A77EE677AC7EDE0
:10590000277A97ED2E7AD7ED2A7A77EE677AC7ED68
:10591000267A97ED2E7AD7ED2A7A77EE277AC7ED99
:105920002E7A97ED2C7AD7ED287A77EE677AC7ED45
:105930002A7A97ED2C7AD7ED287A77EE277AC7ED79
:105940002C7AD7F8E830DB00FA68134497ED2E7A0A
:10595000D7ED2C7A77EE277AC3ED007A97ED2E7A81
:10596000D7ED2C7A77EE677AC7ED2C7AD7F8E83046
:10597000DB000433FA68134493ED007AD7F8C8309B
:10598000DB000433FA681344D3ED007A77EE277A0C
:10599000C7ED0A7AD7F8E830DB000433FA6813441D
:1059A00093ED007AD7F8C830DB000433FA6813446B
:1059B000D3ED007A77EE677AC7ED257AD7F8D43041
:1059C000DB000433FA68134493ED007AD7F8C4304F
:1059D000DB000433FA681344D3ED007A77EE277ABC
:1059E000C7ED097AD7F8D430DB000433FA681344E2
:1059F00093ED007AD7F8C430DB000433FA6813441F
:105A0000D3ED007A77EE677AC7ED247AD7F8D030F5
:105A1000DB000433FA68134493ED007AD7F8C03002
:105A2000DB000433FA681344D3ED007A77EE277A6B
:105A3000C7ED237AD7F8D030DB000433FA6813447B
:105A400093ED007AD7F8C030DB000433FA681344D2
:105A5000D3ED007A77EE677AC7ED227AD7F8CC30AB
:105A6000DB000433FA68134493ED007AD7F8BC30B6
:105A7000DB000433FA681344D3ED007A77EE277A1B
:105A8000C7ED087AD7F8CC30DB000433FA6813444A
:105A900093ED007AD7F8BC30DB000433FA68134486
:105AA000D3ED007A77EE677AC7ED217A97ED0A7A1F
:105AB000D7ED237A77EE677AC7ED207A97ED0A7AE9
:105AC000D7ED237A77EE277AC7ED0A7A97ED097A30
:105AD000D7ED087A77EE677AC7ED237A97ED097AE2
