:020000040C00EE
:1000000000C8FF1F010200089102000891020008C9
:10001000910200089102000891020008000000000F
:100020000000000000000000000000009102000835
:1000300091020008000000009102000891020008EF
:100040009102000891020008910200089102000844
:100050009102000891020008910200089102000834
:1000600091020008000000000000000000000000F5
:1000700091020008000000009102000891020008AF
:100080009102000891020008910200089102000804
:1000900091020008910200089102000891020008F4
:1000A000910200089102000800000000000000001A
:1000B0000000000000000000000000000000000040
:1000C0000000000000000000000000000000000030
:1000D0000000000000000000000000000000000020
:1000E00000000000000000009102000891020008DA
:1000F0009102000891020008910200089102000894
:10010000910200089102000891020008897D000810
:1001100000000000000000000000000000000000DF
:1001200000000000000000000000000000000000CF
:100130009102000891020008910200089102000853
:1001400000000000000000000000000000000000AF
:100150009102000891020008000000000000000069
:100160009102000891020008910200089102000823
:100170009102000891020008910200089102000813
:100180009102000891020008910200089102000803
:10019000910200087D380008910200086D380008BF
:1001A00091020008910200089102000891020008E3
:1001B00091020008910200089102000891020008D3
:1001C000000000000000000000000000000000002F
:1001D0000000000000000000910200080000000084
:1001E00091020008953B0008000000009102000801
:1001F00000000000000000000000000000000000FF
:10020000DFF86CD01B4880471B4C1C4DAC4209DA10
:1002100021686268A368043BA2BFC858D050FAE7BF
:100220000C34F3E7164B174CA34208DA19685A68E6
:100230000020043AA4BF8850FBE70833F4E71248D3
:10024000804712488047000040D7010C10CAFF1FAA
:100250008803000030D5010C00C8FF1F1002000009
:1002600098CDFF1F784C0000101A002000000000FD
:1002700000C8FF1F9502000848020008600200083D
:100280006002000870020008C19600083D7A00086C
:10029000FEE7000098B500AF084A4FF0005314463F
:1002A0000FCB84E80F00064B064A07CA83E8070015
:1002B00000F00AF807F078F898BD00BFC45F00208E
:1002C000D45F00208400002080B483B000AF72B6F9
:1002D000124B134A9A60BFF34F8F62B60F4A0F4B0F
:1002E0005B6923F0080353610E4B03F5805314330D
:1002F0001B687B607B6823F00F037B607B6843F0A7
:1003000002037B60074B03F5805314337A681A604D
:100310000C37BD465DF8047B704700BF00ED00E080
:10032000000000080010005880B584B000AF2F4BCB
:10033000DB6803F48033002B3ED02D4BDB6803F0E9
:100340000103002B02D02B4BFB6002E007F022F8E8
:10035000F860274B1B6803F00403002B20D0244BCC
:100360009B6803F070631B0E0133BB60204B9B68DE
:1003700003F4FE431B0A01337B601D4B9B6803F4AF
:10038000FE031B0C01333B60BB683A6802FB03F3BE
:10039000FA68B2FBF3F37A6802FB03F3FB600DE04B
:1003A000134B9B6803F07F0301333B60FA683B68A3
:1003B000B2FBF3F3FB6001E00E4BFB600B4BDB6821
:1003C000DBB20133FA68B2FBF3F3FB60074B1B6946
:1003D00003F001030133FA68B2FBF3F3FB60064A52
:1003E000FB6813601037BD4680BD00BF004600505B
:1003F0001047005000366E01C05F002080B485B009
:1004000000AFF8600B467A60FB72FB7A9B08DBB2A8
:100410001846FB7A9B08DBB21A46FB68043253F895
:100420002220FB7A03F00303DB001946F8238B40FC
:10043000DB4302EA0301FB68021D43F82210FB685C
:100440005A6FFB7A5B00194603238B40DB431A404B
:10045000FB685A67FB68354A93420AD1FB681A6EFB
:10046000FB7A012101FA03F3DB431A40FB681A66A9
:100470003CE07B685A68FB7A9A40FB685A60FB7ADA
:10048000DB08DBB21846FB7ADB08DBB21A46FB68F6
:10049000103253F82220FB7A03F007039B00194621
:1004A00007238B40DB4302EA0301FB6800F11002E3
:1004B00043F82210FB7ADB08DBB21846FB7ADB0834
:1004C000DBB21A46FB68103253F822207B681B7A95
:1004D0001946FB7A03F007039B0001FA03F342EA93
:1004E0000301FB6800F1100243F82210FB7A9B081D
:1004F000DBB21846FB7A9B08DBB21A46FB68043273
:1005000053F822207B681B781946FB7A03F003031B
:10051000DB0001FA03F342EA0301FB68021D43F822
:1005200022101437BD465DF8047B7047008E0248E8
:1005300080B400AF034B1B681846BD465DF8047BD2
:10054000704700BFC05F002080B584B000AF786006
:10055000FFF7EAFE0B4B1B680B4AA2FB03239A0C26
:100560007B6802FB03F37B600023FB6003E000BFBA
:10057000FB680133FB60FA687B689A42F7D3103757
:10058000BD4680BDC05F002083DE1B43B0B584B094
:1005900002AF7860002000F0A5F800F061FA7B68F7
:1005A000DB79002B01D000F085FA7B685B7A184676
:1005B00000F012F97B681B7A184600F02BFA7B6872
:1005C0001B7C184600F026F97B685B7C184600F01F
:1005D00049F97B689B7C184600F030F97B68DB7C2E
:1005E000184600F053F97B689B79002B01D000F08E
:1005F0009BFA7B68DB78002B02D100F0D5FA14E07F
:1006000000F0C2FA7B6899887B68DA787B685B784F
:100610001D467B681B781C467B689B7800930846C8
:1006200011462A46234600F0CFFA7B68DB68B3F513
:10063000803F03D14FF4803000F054F8FFF774FE90
:100640000837BD46B0BD00BF80B485B000AF78604C
:100650007B681B0FFB607B6823F07043BB60084A1C
:10066000FB6852F823300649FA6851F822201168D5
:10067000BA680A431A601437BD465DF8047B7047B8
:100680005097000880B485B000AF78607B681B0F7E
:10069000FB607B6823F07043BB60094AFB6852F83B
:1006A00023301A68BB681340002B14BF01230023BA
:1006B000DBB218461437BD465DF8047B704700BFB7
:1006C0005C97000880B500AFFFF732FF0246044B8D
:1006D0005B6903F0010322FA03F3184680BD00BFF3
:1006E0000046005080B483B000AF78600649064BE6
:1006F000DB6823F480327B681343CB600C37BD4644
:100700005DF8047B704700BF0046005080B483B0A2
:1007100000AF78600649064B9B6923F480327B6802
:1007200013438B610C37BD465DF8047B704700BFF7
:100730000046005080B483B000AF78600649064B95
:100740005B6A23F440327B6813434B620C37BD462F
:100750005DF8047B704700BF0046005080B483B052
:1007600000AF0346FB80FB88002B08D10A4A0A4BE6
:10077000DB6823F4807323F00103D36007E0064AAB
:10078000054BDB6843F4807343F00103D3600C37FF
:10079000BD465DF8047B70471047005080B483B0BD
:1007A00000AF0346FB7100BF094BD3F8C43003F020
:1007B0000803002BF8D10749064BDB6823F0400201
:1007C000FB791343CB600C37BD465DF8047B704763
:1007D000004000500043005080B483B000AF034697
:1007E000FB7100BF094BD3F8C43003F00803002BA2
:1007F000F8D10749064BDB6823F08002FB791343ED
:10080000CB600C37BD465DF8047B7047004000505C
:100810000043005080B483B000AF78600649064BB7
:10082000DB6823F0FF027B68013B1343CB600C378E
:10083000BD465DF8047B70470046005080B483B02D
:1008400000AF78600649064B1B6A23F001027B6803
:10085000013B13430B620C37BD465DF8047B7047C8
:100860000046005080B483B000AF78600649064B64
:100870001B6923F001027B68013B13430B610C37BA
:10088000BD465DF8047B70470046005080B483B0DD
:1008900000AF78600649064B5B6923F001027B6874
:1008A000013B13434B610C37BD465DF8047B704739
:1008B0000046005080B483B000AF78600649064B14
:1008C0009B6923F007027B68013B13438B610C3764
:1008D000BD465DF8047B70470046005080B483B08D
:1008E00000AF78600649064B5B6A23F0FF027B6825
:1008F000013B13434B620C37BD465DF8047B7047E8
:100900000046005080B483B000AF0346FB71044A38
:10091000FB7953600C37BD465DF8047B704700BF20
:100920000046005080B485B000AF78607B681B0F34
:10093000FB607B6823F07043BB60084AFB6852F899
:1009400023300649FA6851F822201168BA680A4330
:100950001A601437BD465DF8047B7047689700083D
:1009600080B485B000AF78607B681B0FFB607B684C
:1009700023F07043BB60094AFB6852F823301A68C1
:10098000BB681340002B14BF01230023DBB21846C1
:100990001437BD465DF8047B704700BF74970008AC
:1009A00080B483B000AF78603960194A184B5B6936
:1009B00043F001035361164A154B5B6943F0100382
:1009C000536113493B68013B1A027B68013B1B06DC
:1009D00013434B610E4A0E4B5B6943F04003536176
:1009E0000B4A0B4B5B6923F010035361084A084B19
:1009F0005B6943F48023536100BF054B1B6903F01F
:100A00000403002BF9D00C37BD465DF8047B70471A
:100A10001047005080B582B000AF0346FB710F4A0B
:100A20000E4B5B6843F480135360FB79012B0ED1AE
:100A30000A4A0A4B5B6823F4801353606420FFF773
:100A400083FD064A054B5B6843F400235360642032
:100A5000FFF77AFD0837BD4680BD00BF1047005044
:100A600080B500AF114B1B6803F00103002B0CD1C4
:100A70000E4A0E4B5B6843F00103536000BF0B4B03
:100A80001B6803F00103002BF9D0094B1B6803F42A
:100A90000073002B08D0064A054B9B6843F4007393
:100AA00093609620FFF750FD80BD00BF00420050CC
:100AB0000044005080B500AF00BF194BD3F8C430DC
:100AC00003F08003002BF8D1164A164BDB6923F0A4
:100AD0003003D36100BF124BD3F8C43003F00803D6
:100AE000002BF8D10F4A0F4BDB6843F00803D360AB
:100AF00000BF0B4BD3F8C43003F00203002BF8D136
:100B0000084A084B5B6843F0080353603220FFF744
:100B10001BFD044B1B6803F00803002BE8D180BDCC
:100B20000040005000430050B0B500AF134A134BD3
:100B30005B6823F480335360114D114B5B6823F4E1
:100B4000702424F0300406F025FC02460D4BA3FB74
:100B500002231B0D013B1B0423436B60074A074B19
:100B60005B6823F40033536000BF044B1B6803F43D
:100B70006073B3F5607FF8D1B0BD00BF104700507F
:100B8000004700506BCA5F6B80B400AF054A054B4D
:100B90005B6823F4803323F002035360BD465DF8A5
:100BA000047B70471047005080B400AF054A054BE6
:100BB0005B6843F4803343F002035360BD465DF845
:100BC000047B70471047005090B587B000AFBA6003
:100BD0007B600346FB810B467B73FB891846FFF75E
:100BE000BDFD7B7B012B40F09580FB89002B08D15C
:100BF00006F0D0FB0346184608F02CF803467B614C
:100C000001E0514B7B61786808F024F803461846F0
:100C1000796908F077F803461C46B86808F01AF8B6
:100C200003462046194608F021F903467B6178699E
:100C300008F054FA0246454BA3FB02235B0D3B61CF
:100C4000434A434B5B6843F001035360404A404BC7
:100C50005B6843F0100353603D493D4B9A683D4B40
:100C600013407A68013A12021A433B69013B1B04A4
:100C70001A43BB68013B1B0613438B60344A344B59
:100C80005B6843F040035360314A314B5B6823F0AB
:100C9000100353602E4A2E4B5B6843F4802353604D
:100CA00000BF2B4B1B6803F00403002BF9D0284A2C
:100CB000274B5B6823F00103536000BF244B1B6884
:100CC00003F00103002BF9D1786908F007FA034615
:100CD0001B0A214AA2FB03239B0A3B61BA6A3B69B8
:100CE0009A4202D2386900F03BF8786908F0F6F9C8
:100CF0000346DB09194AA2FB0323DB0A3B61BA6AFC
:100D00003B699A4202D2386900F02AF8B86A00F0CA
:100D100027F815E00E490E4B9B6823F07F02BB6A53
:100D2000013B13438B600A4A094B5B6843F00103A4
:100D3000536000BF064B1B6803F00103002BF9D082
:100D40001C37BD4690BD00BF001BB74B819F5E1690
:100D500010470050FF8080F0C7541E012FE3BE00F3
:100D600080B582B000AF78600749074B9B6823F4D9
:100D7000FE027B68013B1B0413438B603220FFF7AC
:100D8000E3FB0837BD4680BD1047005080B582B0F8
:100D900000AF78607B680C4A934208D14FF4006042
:100DA000FFF7C0FD4FF40060FFF74EFC09E07B68E1
:100DB000064A934205D10648FFF7B4FD0448FFF701
:100DC00043FC0837BD4680BD0800034008000248C8
:100DD0008000001080B582B000AF78601020FFF76F
:100DE00091FD786800F0B2F9786800F0C3F908372F
:100DF000BD4680BD80B584B000AF78600B46FB7007
:100E00007868FFF7E7FF7B681B68FB60FB6823F4EB
:100E10004043FB60FB789B03FA681343FB607B68ED
:100E2000FA681A601037BD4680BD00BF80B483B039
:100E300000AF786039603B681A687B685A613B682C
:100E40005B79C3F34013DBB21A057B685A603B68D9
:100E50001B79C3F30303DBB21A467B685A623B6813
:100E60005B79C3F30303DBB21A467B681A623B6803
:100E70005B79C3F30013DBB21A467B689A613B6867
:100E80001B79C3F30313DBB21A467B68DA620C37B3
:100E9000BD465DF8047B704780B485B000AF7860D4
:100EA0000B46FB707B685B68FB60FB6823F4404388
:100EB000FB60FB789B03FA681343FB607B68FA686E
:100EC0005A601437BD465DF8047B704780B485B026
:100ED00000AF78600B46FB707B685B68FB60FB686B
:100EE00023F44073FB60FB781B02FA681343FB603A
:100EF0007B68FA685A601437BD465DF8047B70471A
:100F000080B485B000AF78600B46FB707B685B688F
:100F1000FB60FB6823F44063FB60FB789B02FA688C
:100F20001343FB607B68FA685A601437BD465DF86E
:100F3000047B704780B487B000AFF8600B467A60DE
:100F4000FB72FB681B687B61FB7A013BFB74FB7CDB
:100F50005B00DBB21033BB74BB7C032202FA03F3E9
:100F6000DB437A6913407B617B685B781A46BB7C04
:100F700002FA03F37A6913437B61FB7C1633BB747B
:100F8000BB7C012202FA03F3DB437A6913407B61E5
:100F90007B689B781A46BB7C02FA03F37A69134399
:100FA0007B61FB7C5B00DBB21933BB74BB7C03222F
:100FB00002FA03F3DB437A6913407B617B68DB78D9
:100FC0001A46BB7C02FA03F37A6913437B61FB7C0C
:100FD0009B00BB74BB7C0F2202FA03F3DB437A69EC
:100FE00013407B617B681B781A46BB7C02FA03F3D3
:100FF0007A6913437B61FB687A691A601C37BD46C6
:101000005DF8047B704700BF80B483B000AF7860A8
:101010000B46FB70FB78002B06D17B685B6923F0E5
:1010200001027B685A6105E07B685B6943F001025D
:101030007B685A610C37BD465DF8047B704700BF82
:1010400080B485B000AF78600B46FB707B689B6A0C
:10105000FB60FB6823F47063FB60FB781B02FA689B
:101060001343FB607B68FA689A62FA787B685A627D
:101070001437BD465DF8047B704700BF80B483B071
:1010800000AF786039607B681A693B681A437B68F7
:101090001A610C37BD465DF8047B704780B487B099
:1010A00000AF78600B46FB701346BB707B68D3F8CB
:1010B000A830FB60FB78092B2CD801A252F823F052
:1010C000E9100008E9100008F3100008F310000808
:1010D0001511000815110008151100081511000858
:1010E000FD1000080911000803233B6100237B6108
:1010F00016E00C233B6102237B6111E04FF4407347
:101100003B6108237B610BE04FF440633B610A23A2
:101110007B6105E04FF440533B610C237B6100BFD2
:101120003B69DB43FA681340FB60BA787B6902FADB
:1011300003F3FA681343FB607B68FA68C3F8A820DE
:101140001C37BD465DF8047B704700BF80B582B098
:1011500000AF78607B68064A934203D10420FFF712
:1011600073FA02E00820FFF76FFA0837BD4680BD2A
:1011700000C0004080B582B000AF78607B68064A4E
:10118000934203D10420FFF7CDFB02E00820FFF7D4
:10119000C9FB0837BD4680BD00C0004080B483B0A5
:1011A00000AF78600B46FB70F878FB787A68DB005C
:1011B00013449B6843F080727968C3000B449A60C3
:1011C0000C37BD465DF8047B704700BF80B483B028
:1011D00000AF78600B46FB70F878FB787A68DB002C
:1011E00013445B6843F000527968C3000B445A60B3
:1011F0000C37BD465DF8047B704700BF80B483B0F8
:1012000000AF78600B46FB70F878FB787A68DB00FB
:1012100013445B6823F000527968C3000B445A60A2
:101220000C37BD465DF8047B704700BF80B483B0C7
:1012300000AF78600B46FB7013463B80FB783A8822
:10124000796804339B000B445A600C37BD465DF847
:10125000047B704780B483B000AF78600B46FB70AE
:1012600013463B807B68DA69FB781B01194640F620
:10127000FF738B40DB4313403A88F97809018A40B9
:101280001A437B68DA610C37BD465DF8047B704712
:1012900080B485B000AFF8600B467A60FB72F87AD4
:1012A000FB7AFA68DB0013449B6823F4CE227B6848
:1012B0001A43F968C3000B449A601437BD465DF8C1
:1012C000047B704780B485B000AFF8600B467A604D
:1012D000FB72F87AFB7AFA68DB0013445B6823F44C
:1012E000E0027B681A43F968C3000B445A60143764
:1012F000BD465DF8047B704780B582B000AF786072
:101300000448FFF70FFB0348FFF79EF90837BD4677
:1013100080BD00BF2000001080B584B000AFF86031
:101320000B467A60FB72F868FFF7E6FFFB7A7A6893
:101330001268F968DB000B445A60FB7A7A685268DD
:10134000F968DB000B449A60FB7A012B04D8FB7A26
:10135000F8681946FFF722FF1037BD4680BD00BF71
:1013600080B586B000AFF8600B467A60FB72FFF77D
:10137000A9F902467B68B2FBF3F33B613B690F2B93
:1013800002D80423FB7516E03B69B3F5801F02D336
:101390000323FB750FE0F87AFB7AFA68DB0013444D
:1013A0005B681B0D1B053A691A43F968C3000B44BF
:1013B0005A600023FB75FB7D18461837BD4680BD7B
:1013C00080B586B000AFF8600B467A60FB72FB7A9E
:1013D000FA6804339B0013445B687B61FB68DB693C
:1013E000FA7A1201D340C3F30B033B613A697B697C
:1013F000D31A01337A6802FB03F3FA7AF8681146CC
:101400001A46FFF7ADFF034618461837BD4680BDA4
:1014100080B582B000AF78600B46FB70FB787868CF
:1014200019464FF48012FFF74DFF00231846083786
:10143000BD4680BD80B586B000AFF8607A603B6085
:101440000B46FB720023FB75FB7AF86819460022F5
:10145000FFF738FF7B68002B07D1FB7AF868194645
:101460003A68FFF77DFF0346FB75FB7D002B0CD12F
:10147000FB7AF86819467A68FFF70AFFFB7AF86882
:1014800019464FF40012FFF71DFFFB7D1846183771
:10149000BD4680BD80B586B000AFF86008461146F5
:1014A0001A460346FB720B463B811346FB80002322
:1014B000FB75FB7AF86819460022FFF703FFFA7AFA
:1014C0003B89F86811461A46FFF7B0FEFA7AFB88A6
:1014D000F86811461A46FFF7BDFEFB7AF868194610
:1014E0003A6AFFF7D5FE3B6A002B07D1FB7AF86812
:1014F00019467A6AFFF764FF0346FB75FB7D002BF4
:1015000006D1FB7AF86819464FF4A002FFF7DAFE1D
:10151000FB7D18461837BD4680BD00BF80B586B03C
:1015200000AFF8607A601A460B46FB721346BB7236
:101530000023FB75FB7AF86819460022FFF7C2FE0C
:101540003B6A002B09D17B6A5B01FA7AF868114685
:101550001A46FFF705FF0346FB75FB7D002B20D1E4
:10156000FB7AF86819467A6800F050F8BB7A012BCC
:1015700005D1FB7AF8681946FFF728FE04E0FB7AEC
:10158000F8681946FFF73AFEFB7AF86819463A6A96
:10159000FFF77EFEFB7AF86819464FF44012FFF71A
:1015A00091FEFB7D18461837BD4680BD80B586B0DC
:1015B00000AFF8607A603B600B46FB720023FB755E
:1015C000FB7AF86819460022FFF77CFE7B68002B47
:1015D00007D1FB7AF86819463A68FFF7C1FE03465F
:1015E000FB75FB7D002B0CD1FB7AF86819467A68F5
:1015F000FFF74EFEFB7AF86819464FF48002FFF7BA
:1016000061FEFB7D18461837BD4680BD80B487B0AB
:1016100000AFF8600B467A60FB727B681B783B6119
:1016200001237B6110E07A687B6913441B781946BB
:101630007A6913469B00134401FA03F33A69134392
:101640003B617B6901337B617B69052BEBD9FA7ABE
:10165000FB680432396943F832107B6806331B7823
:101660003B6101237B6111E07B6906337A68134497
:101670001B7819467A6913469B00134401FA03F359
:101680003A6913433B617B6901337B617B69052BBD
:10169000EAD9FB7AFA680433DB0013443A695A60EA
:1016A0001C37BD465DF8047B704700BF80B483B033
:1016B00000AF78607B68D3F8603318460C37BD46BE
:1016C0005DF8047B704700BF80B483B000AF7860E2
:1016D0007B68D3F8E83218460C37BD465DF8047BCA
:1016E000704700BF80B483B000AF78607B68D3F8E8
:1016F000F03218460C37BD465DF8047B704700BFDA
:1017000080B483B000AF78607B68D3F8F8321846B5
:101710000C37BD465DF8047B704700BF80B483B0D2
:1017200000AF78607B68D3F8003318460C37BD46AD
:101730005DF8047B704700BF80B483B000AF786071
:101740007B68D3F8083318460C37BD465DF8047B38
:10175000704700BF80B582B000AF7860786800F055
:1017600003F80837BD4680BD80B582B000AF786011
:101770000648FFF7D7F80548FEF766FF7B680122A9
:10178000C3F898230837BD4680BD00BF1000002075
:1017900080B584B000AF78601E48FEF773FF034643
:1017A000002B14BF01230023DBB283F00103DBB263
:1017B000FB73FB7B03F00103FB73FB7B002B0AD065
:1017C0001448FFF7CDF8034683F00103DBB2002B8A
:1017D00001D0012300E00023FB73FB7B03F0010336
:1017E000FB73FB7B002B0FD0FB7B002B06D07B68B1
:1017F000D3F89833002B01D0012300E00023FB73C2
:10180000FB7B03F00103FB73FB7B18461037BD46DF
:1018100080BD00BF1000002080B483B000AF7860AE
:101820000B46FB701346BB700F480F4B9A68FB7852
:101830009B0019460F238B40DB431A40BB78F97895
:1018400089008B40134383600749074B1A69FB7873
:1018500003F00703012000FA03F313430B610C3775
:10186000BD465DF8047B70470049005080B483B0EA
:1018700000AF78600B46FB70FB7840F201129A4093
:101880007B68C3F8A0230C37BD465DF8047B704726
:1018900080B483B000AF78600B46FB70FB784FF4E8
:1018A00080729A407B68C3F8A02300BF7B68D3F89E
:1018B000A023FB7822FA03F303F00103002BF5D1F8
:1018C0000C37BD465DF8047B704700BF80B483B021
:1018D00000AF78600B46FB707B68D3F8A023FB78E1
:1018E00022FA03F303F00103002B14BF01230023AA
:1018F000DBB218460C37BD465DF8047B704700BF6D
:1019000080B586B000AFF8600B467A60FB72F8686D
:10191000FFF73EFF0346002B00F0DB81FB7AF868FF
:101920001946FFF7D3FF034683F00103DBB2002B18
:1019300000F0CC81FB7A7A685268F968582000FB85
:1019400003F30B441A60FB7A7A689268F9685820AE
:1019500000FB03F30B4408331A60FB7A7A68D26801
:101960001046FA68582101FB03F313441033186042
:10197000FB7A7A68128B1046FA68582101FB03F350
:10198000134418335860FB7A7A681268F968582053
:1019900000FB03F30B4418331A60FB7A7A68D27E9B
:1019A00042F44062F968582000FB03F30B444033D3
:1019B0001A60FB68A64A934216D1FB7A012B13D812
:1019C000FB7A7A681269F968582000FB03F30B442C
:1019D00048331A60FB7A7A685269F968582000FB2C
:1019E00003F30B4450331A607B681B8C002B44D1EB
:1019F0007B689B7803F07003DBB2102B06D07B680A
:101A00009B7803F07003DBB2302B36D17B6893F800
:101A1000223003F00703BB757B6893F822301B0963
:101A20007B75FB7AFA7AF968582000FB02F20A44C7
:101A300040325168BA7DD2020A43F968582000FB4F
:101A400003F30B4440335A60BA7D7B7DF86811463E
:101A50001A46FFF7E1FEFB7AFA7AF968582000FB94
:101A600002F20A444032126822F48062F968582077
:101A700000FB03F30B4440331A607B689B8B002B05
:101A800042D17B689B7803F07003DBB2202B06D039
:101A90007B689B7803F07003DBB2302B34D17B681A
:101AA0009B7F03F00703BB757B689B7F1B097B75DE
:101AB000FB7AFA7AF968582000FB02F20A444032B5
:101AC0005168BA7DD2010A43F968582000FB03F33C
:101AD0000B4440335A60BA7D7B7DF86811461A4644
:101AE000FFF79AFEFB7AFA7AF968582000FB02F2B7
:101AF0000A444032126822F40062F968582000FB60
:101B000003F30B4440331A60FB7AF86819461F222E
:101B100000F016F97B689B7E082B00F2D38001A2AF
:101B200052F823F0C51C0008491B00086F1B000871
:101B3000951B0008BB1B0008E11B00082B1C0008BC
:101B4000551C00089F1C0008FB7AFA7AF968582097
:101B500000FB02F20A444032126842F00042F96887
:101B6000582000FB03F30B4440331A60ABE0FB7AD0
:101B7000FA7AF968582000FB02F20A4440321268EF
:101B800042F08042F968582000FB03F30B444033D5
:101B90001A6098E0FB7AFA7AF968582000FB02F2A2
:101BA0000A444032126842F04042F968582000FB73
:101BB00003F30B4440331A6085E0FB7AFA7AF96844
:101BC000582000FB02F20A441832126842F0006208
:101BD000F968582000FB03F30B4418331A6072E0D5
:101BE000FB7AFA7AF968582000FB02F20A44403284
:101BF000126842F08042F968582000FB03F30B445E
:101C000040331A60FB7AFA7AF968582000FB02F236
:101C10000A441832126842F00062F968582000FB4A
:101C200003F30B4418331A604DE0FB7AFA7AF96833
:101C3000582000FB02F20A441832126842F0805227
:101C4000F968582000FB03F30B4418331A603AE09C
:101C500000400150FB7AFA7AF968582000FB02F242
:101C60000A444032126842F00042F968582000FBF2
:101C700003F30B4440331A60FB7AFA7AF968582070
:101C800000FB02F20A441832126842F08052F968EE
:101C9000582000FB03F30B4418331A6013E0FB7A5F
:101CA000FA7AF968582000FB02F20A4418321268E6
:101CB00042F0C052F968582000FB03F30B4418337C
:101CC0001A6000E000BF0023FB7504E00223FB75EF
:101CD00001E00123FB75FB7D18461837BD4680BD2A
:101CE00080B487B000AFF8600B467A60FB720023C7
:101CF0007B611CE07B697A6822FA03F303F001033D
:101D0000002B11D07B695A007B695900FB68C431F4
:101D100053F82110FB7A40F2011000FA03F3194343
:101D2000FB68C43243F822107B6901337B617B6915
:101D3000042BDFD91C37BD465DF8047B704700BF1C
:101D400080B487B000AFF8600B467A60FB72002366
:101D50007B6113E07B697A6822FA03F303F00103E5
:101D6000002B08D07B695A00FB7A01219940FB685F
:101D7000CE3243F822107B6901337B617B69042BEF
:101D8000E8D91C37BD465DF8047B704780B485B048
:101D900000AFF8600B467A60FB72FB7A04497A6800
:101DA00041F823201437BD465DF8047B704700BF1F
:101DB000D0CDFF1F80B588B000AF78607C4BBB6191
:101DC0007868FFF773FC78610023FB617B6903F09F
:101DD0001003002B2AD07868FFF7AEFC786121E071
:101DE0000122FB6902FA03F33B617A693B69134004
:101DF000002B14D0FB699B00BA6913441B68FB607D
:101E0000FB68002B02D0FB6810209847FB69DBB20F
:101E1000786819461022FFF793FF00BFC5E0FB6901
:101E20000133FB617B69002BDAD1BEE07B6903F0F3
:101E30000103002B2AD07868FFF746FC786121E087
:101E40000122FB6902FA03F33B617A693B691340A3
:101E5000002B14D0FB699B00BA6913441B68FB601C
:101E6000FB68002B02D0FB6801209847FB69DBB2BE
:101E7000786819460F22FFF763FF00BF95E0FB6902
:101E80000133FB617B69002BDAD18EE07B6903F0C3
:101E90000203002B2AD07868FFF724FC786121E048
:101EA0000122FB6902FA03F33B617A693B69134043
:101EB000002B14D0FB699B00BA6913441B68FB60BC
:101EC000FB68002B02D0FB6802209847FB69DBB25D
:101ED000786819460E22FFF733FF00BF65E0FB6903
:101EE0000133FB617B69002BDAD15EE07B6903F093
:101EF0000403002B2AD07868FFF702FC786121E008
:101F00000122FB6902FA03F33B617A693B691340E2
:101F1000002B14D0FB699B00BA6913441B68FB605B
:101F2000FB68002B02D0FB6804209847FB69DBB2FA
:101F3000786819460422FFF703FF00BF35E0FB690C
:101F40000133FB617B69002BDAD12EE07B6903F062
:101F50000803002B29D07868FFF7E0FB786121E0C7
:101F60000122FB6902FA03F33B617A693B69134082
:101F7000002B14D0FB699B00BA6913441B68FB60FB
:101F8000FB68002B02D0FB6808209847FB69DBB296
:101F9000786819460822FFF7D3FE00BF05E0FB6909
:101FA0000133FB617B69002BDAD12037BD4680BD50
:101FB000D0CDFF1F80B483B000AF78600B46FB70BC
:101FC0001346BB707B685A6FFB785B00194603238E
:101FD0008B40DB431A407B685A677B685A6FBB783B
:101FE000F97849008B401A437B685A670C37BD4625
:101FF0005DF8047B704700BF80B483B000AF7860A9
:102000007B689B6BDBB223F07F03DBB218460C3797
:10201000BD465DF8047B704780B483B000AF786044
:1020200039607B68DA6C3B681A437B68DA640C378A
:10203000BD465DF8047B704780B582B000AF786024
:102040003960786800F094F83B681B79002B06D162
:102050003B681B6878681946022200F0C3F87B6869
:102060000E4A5A637B684FF4A2629A633B681B79FD
:10207000002B07D13B685B7943F00B03DBB21A46B8
:102080007B68DA637B684FF0FF32DA643B68DB8899
:102090001A467B681A640837BD4680BD02013F07B7
:1020A00080B483B000AF786039607B68DB6B23F469
:1020B0007F027B68DA637B68DA6B3B681A437B6874
:1020C000DA630C37BD465DF8047B704780B582B09B
:1020D00000AF78600B467B8013467B707B681B6C7F
:1020E00023F0C0027B789B01DBB21A437B681A6441
:1020F0007B68D3F8083103F0E063002B14D100BFF4
:102100007868FFF779FF0346DBB25BB2002BF7DBA1
:1021100078684FF40051FFF77FFF7A7879887B6801
:10212000203243F8221005E07A7879887B686032A3
:1021300043F822100837BD4680BD00BF80B485B08B
:1021400000AF78607B68D3F80C3103F0E063002BBC
:1021500003D17B685B6DFB8103E07B68D3F81C31A6
:10216000FB81FB8918461437BD465DF8047B704738
:1021700080B582B000AF78607B68144A934203D088
:102180007B68134A934203D11248FEF7FFFD0AE031
:102190007B68114A934203D07B68104A934202D174
:1021A0000F48FEF7F3FD7B680322DA6000BF7B680F
:1021B000DB6803F00103002BF9D07B681B6C23F074
:1021C0000F027B681A640837BD4680BD00000340DB
:1021D00000020340080003400000024800020248D9
:1021E0000800024880B58EB000AFF860B9607A6030
:1021F000BB68632B58D97B68002B55D0FEF762FA79
:1022000002462E4BA3FB02235B093B62BB682B4AB1
:10221000A2FB03235B09BB600123FB620123BB62BA
:1022200040F2FF337B6240F2FF333B6322E03B6AC4
:102230003A6B02FB03F2BB68796801FB03F3B2FB64
:10224000F3F3FB61FB699B0ABB61FB69C3F3090301
:102250007B61BB69B3F5806F09D27A697B6A9A4268
:1022600005D27B697B62BB69BB623B6BFB623B6BEC
:10227000013B3B633B6B002BD9D1FB6A43F400422B
:10228000FB681A61FB685A690D4B13407A68013A82
:1022900092021A43BB6A013B1B041A43FB685A6152
:1022A000002387F8373002E0012387F8373097F8AA
:1022B000373018463837BD4680BD00BF1F85EB510B
:1022C000EF8000FC80B485B000AFF860B9603B607F
:1022D0001346FB71FB68D3F8083123F0E062FB681A
:1022E000C3F80821FB68D3F80821094B13403A686A
:1022F0001102BA681143FA7912060A431A43FB68BD
:10230000C3F808211437BD465DF8047B704700BF51
:10231000C0C0FFF880B485B000AFF8600B467A60AB
:10232000FB72FB68D3F80C3123F0E062FB68C3F862
:102330000C21FB68D3F80C3123F47C527B681B0220
:102340001A43FB7A1B061A43FB68C3F80C211437A7
:10235000BD465DF8047B704780B485B000AFF8607F
:102360000B467A60FB72FB689A69FB7A072101FAD7
:1023700003F3DB431A40FB7A796801FA03F31A434B
:10238000FB689A611437BD465DF8047B704700BF57
:1023900080B485B000AFF8600B467A60FB72FB68D2
:1023A000D3F80821FB7A072101FA03F3DB431A4033
:1023B000FB7A796801FA03F31A43FB68C3F8082132
:1023C0001437BD465DF8047B704700BF80B485B00C
:1023D00000AF786039603B78C3F30203DBB21A4682
:1023E0007B88C3F309039BB21B041343FB607B6828
:1023F000FA68C3F8F021FB78C3F30013DBB21A07C5
:10240000FB78C3F38103DBB29B061A43FB78C3F36B
:102410004013DBB25B071343FB60FB78C3F380130D
:10242000DBB29B07FA681343FB607B68D3F8F021AB
:10243000FB68134343F000427B68C3F8F021143774
:10244000BD465DF8047B704780B483B000AF786010
:102450007B68D3F8843043F080627B68C3F88420C3
:102460000C37BD465DF8047B704700BF80B483B075
:1024700000AF78607B68D3F8843023F080627B689B
:10248000C3F884200C37BD465DF8047B704700BF5D
:1024900080B500AF0120FEF745FA0120FEF7D4F821
:1024A00080BD00BF80B582B000AF78603960FFF7B3
:1024B000EFFF3B685A697B681A603B685B6843F4CE
:1024C00000427B68C3F880203B689A687B68C3F849
:1024D000A0203B68DA687B68C3F8A4203B681A69CF
:1024E0007B68C3F880223B681A687B68C3F8B82011
:1024F0000837BD4680BD00BF80B485B000AFF8602E
:10250000B9603B601346FB71FB79002B09D1BA68B7
:1025100040F21F731340FA683968283142F82130BD
:1025200007E0BA68054B1340FA683968283142F869
:1025300021301437BD465DF8047B704700001F074B
:1025400080B485B000AF78607B68D3F8803043F00A
:1025500000427B68C3F880200023FB7316E0FB7BFE
:102560000E4A52F82330BB60BB68D3F8803003F4C6
:102570004033002B07D000BFBB68D3F8803003F096
:102580008053002BF8D1FB7B0133FB73FB7B012BCA
:10259000E5D91437BD465DF8047B70478097000885
:1025A00080B485B000AF78600B46FB70FB78032BDE
:1025B00003D9FB78043BFB6001E0FB78FB607B68A0
:1025C000D3F8403123F00F027B68C3F840217B68C9
:1025D000D3F84021FB681A437B68C3F840211437C5
:1025E000BD465DF8047B704780B582B000AF78606F
:1025F00039603B68786859680022002300F028F8A9
:102600003B68786859680122002300F021F83B6894
:10261000786899680022012300F01AF83B6878680E
:1026200099680122012300F013F83B681A697B685E
:10263000C3F880203B68DA687B68C3F8B8203B6841
:1026400078681968FFF7C2FE0837BD4680BD00BF35
:1026500080B48DB000AFF860B9603B601346FB7189
:10266000FB79002B13D10823FB624FF4E0637B62FC
:102670000023BB621F233B623B7AC3F30403DBB23C
:10268000FB617B7AC3F30203DBB2FB7613E0182312
:10269000FB624FF0E0637B621023BB624FF4F813E0
:1026A0003B62BB7AC3F30403DBB2FB61FB7AC3F387
:1026B0000203DBB2FB76FB683A68283253F822301B
:1026C0007B617B6ADB437A6913407B61FA7EFB6A3C
:1026D00002FA03F37A6913437B613B6ADB437A694D
:1026E00013407B61BB6AFA6902FA03F37A69134308
:1026F0007B61FB683A682832796943F822103437E5
:10270000BD465DF8047B704780B485B000AF78604B
:102710000B46FB707B68D3F88030FB60FB6823F0CE
:102720000303FB60FB78FA681343FB607B68FA687D
:10273000C3F880201437BD465DF8047B704700BFA6
:1027400080B586B000AF786039600023FB7509E082
:10275000FB7D394A52F823301846FFF787FEFB7D90
:102760000133FB75FB7D012BF2D900233B613B68F4
:102770001B7803F00303DBB2002B02D04FF400639D
:102780003B610023FB7521E0FB7D2B4A52F823308F
:10279000D3F88430FB60FB6823F44073FB603B6834
:1027A0001B78C3F38103DBB21B02FA681343FB609F
:1027B000FA683B691343FB60FB7D1F4A52F82330E4
:1027C000FA68C3F88420FB7D0133FB75FB7D012B88
:1027D000DAD93B685B6843F4000343F400437A684A
:1027E000C2F800323B689B6843F001027B68C3F883
:1027F00004223B681B7803F00303DBB2022B07D1F2
:102800007B68D3F8043243F480327B68C3F8042237
:102810000023FB7509E0FB7D074A52F82330184678
:10282000FFF712FEFB7D0133FB75FB7D012BF2D917
:102830001837BD4680BD00BF8097000880B489B0BE
:1028400000AFF860B9607A607B681B7BBB61FB6896
:10285000D3F888307B61BB68012202FA03F3DB43C3
:102860007A6913407B61BB68BA6902FA03F37A693B
:1028700013437B61FB687A69C3F888207B685B7BC4
:102880005BB2002B29DB0023FB61BB68012B0AD163
:102890000823FB61FB68D3F8B03023F4F852FB68DF
:1028A000C3F8B0200CE0BB68002B09D10023FB610A
:1028B000FB68D3F8B03023F01F02FB68C3F8B020E8
:1028C000FB68D3F8B0307A68527B51B2FA6901FAEA
:1028D00002F21A43FB68C3F8B020FB68D3F8C820A3
:1028E0007B685B681A43FB68C3F8C820FB68D3F8B1
:1028F000D0207B689B681A43FB68C3F8D0207B68B4
:102900001968FB68BA68803243F822102437BD4644
:102910005DF8047B704700BF80B487B000AFF860FB
:10292000B9601346FB71BB68072B18D8FB68D3F856
:10293000B0317B61BB689B001A460F239340DB4399
:102940007A6913407B61FB79BA68920093407A6997
:1029500013437B61FB687A69C3F8B0211EE0FB6812
:10296000D3F8B4317B61BB6803F18043083B9B0023
:102970001A460F239340DB437A6913407B61FA794F
:10298000BB6803F18043083B9B0002FA03F37A69BA
:1029900013437B61FB687A69C3F8B4211C37BD46D9
:1029A0005DF8047B704700BF80B400AFBD465DF8A2
:1029B000047B704780B483B000AF78600B46FB7037
:1029C0007B68DA68FB78012101FA03F31A437B681C
:1029D000DA600C37BD465DF8047B704780B483B085
:1029E00000AF78607B689B6803F00103002B14BF85
:1029F00001230023DBB218460C37BD465DF8047B8B
:102A0000704700BF80B483B000AF78607B6801225C
:102A1000DA600C37BD465DF8047B704780B483B044
:102A200000AF78607B681B6943F001027B681A6124
:102A30000C37BD465DF8047B704700BF80B483B09F
:102A400000AF78607B681B6943F002027B681A6103
:102A50000C37BD465DF8047B704700BF80B483B07F
:102A600000AF78600B467B807A887B685A630C37AE
:102A7000BD465DF8047B704780B483B000AF7860DA
:102A80000B467B807A887B68DA630C37BD465DF83D
:102A9000047B704780B483B000AF78600B46FB7056
:102AA0007B68D3F8A420FB78012101FA03F31A43D1
:102AB0007B68C3F8A4200C37BD465DF8047B7047E3
:102AC00080B584B000AF78600023FB737B6893F817
:102AD000263083F00103DBB2002B09D07B6893F82A
:102AE0002130002B04D1786800F0F6F80346FB7320
:102AF000FB7B18461037BD4680BD00BF80B584B053
:102B000000AF78607B6893F82630002B0CD07B6890
:102B100093F82130002B04D17B685B691846FFF7DE
:102B200071FF0023FB7301E00123FB73FB7B18465D
:102B30001037BD4680BD00BF80B584B000AF78605F
:102B4000786800F01DF80346002B11D07B6893F8DD
:102B50002630002B0CD07B6893F82130002B04D159
:102B60007B685B691846FFF759FF0023FB7301E0A0
:102B70000123FB73FB7B18461037BD4680BD00BFA9
:102B800080B584B000AF78600023FB737B6893F856
:102B90002130002B06D17B685B691846FFF71EFFCA
:102BA0000346FB73FB7B18461037BD4680BD00BF54
:102BB000F0B587B000AF786039600123FB757868A5
:102BC000FFF7DEFF034683F00103DBB2002B79D071
:102BD0007B689A683B689A4274D87B685A683B68FD
:102BE0009A426FD300233B6102E03B6901333B61B2
:102BF0007B685B683A69C2F10F0223FA02F23B6814
:102C00009A42F2D37B6893F82130002B5AD17B682B
:102C10001B691B68FB607B68DA693B69DBB203F008
:102C20000F03D9B2137961F3030313713B6818469C
:102C30004FF00001FB681A464FF0000302FB01FE53
:102C400000FB03F67644A0FB0223F1180B467968DB
:102C5000C9690979C1F30301C9B2C1F12006A1F123
:102C6000200022FA01F403FA06F6344323FA00F0B6
:102C7000044323FA01F52046294615A3D3E900238E
:102C800006F04CFA02460B4692B27B685A847B6887
:102C90005B8C012B05D97B685B8C013B9AB27B680E
:102CA0005A847B685A697B68DB691B79C3F3030329
:102CB000DBB210461946FEF7C3F9786800F058F801
:102CC0000023FB75FB7D18461C37BD46F0BD00BFD9
:102CD00000E1F5050000000080B584B000AF786029
:102CE0007B681B69184600F06DFF0346FB737B6829
:102CF0001B699A687B681B7E10461946FFF75AFECF
:102D00007B685A697B68DB6910461946FEF78EF8C6
:102D1000786800F02DF87B6893F82530002B0FD0F1
:102D20007B685A697B6893F82030104600211A4668
:102D3000FEF7B4F97B685B6918460021FFF7AAFE2D
:102D40007B685B691846FFF779FE7B68012283F890
:102D500026207B6893F82430002B04D07B685B69C5
:102D60001846FFF74FFEFB7B18461037BD4680BD67
:102D700080B582B000AF78607B685A697B685B8CF5
:102D800010461946FFF76AFE7B685B69184600210A
:102D9000FFF772FE7B681B699A687B68DB681046E8
:102DA0001946FEF76BF90837BD4680BD80B483B085
:102DB00000AF786039607B681A6C3B681A437B68A7
:102DC0001A640C37BD465DF8047B704780B483B04D
:102DD00000AF786039607B681A6C3B68DB431A404F
:102DE0007B681A640C37BD465DF8047B704700BFF2
:102DF00080B483B000AF78607B689B6BDBB223F05C
:102E00007F03DBB218460C37BD465DF8047B704784
:102E100080B483B000AF78607B681B6D03F4C0435F
:102E200018460C37BD465DF8047B704780B483B00C
:102E300000AF786039607B689A6E3B684FF48031F0
:102E400001FA03F31A437B689A660C37BD465DF8B6
:102E5000047B704780B483B000AF786039607B68D2
:102E6000D3F808213B681A437B68C3F808210C3764
:102E7000BD465DF8047B704780B483B000AF7860D6
:102E800039607B68D3F808213B68DB431A407B68D4
:102E9000C3F808210C37BD465DF8047B704700BFBE
:102EA00080B483B000AF78607B68D3F8183143F406
:102EB00000427B68C3F818210C37BD465DF8047BDF
:102EC000704700BF80B483B000AF78607B68D3F8F0
:102ED000143103F48053002B14BF01230023DBB211
:102EE00018460C37BD465DF8047B704780B483B04C
:102EF00000AF78607B68D3F8143103F40063002BD3
:102F000014BF01230023DBB218460C37BD465DF821
:102F1000047B704780B483B000AF786039607B6811
:102F2000D3F80C213B68DB431A407B68C3F80C21C3
:102F30000C37BD465DF8047B704700BF80B483B09A
:102F400000AF78607B68D3F8143103F00803002BDE
:102F500014BF01230023DBB218460C37BD465DF8D1
:102F6000047B704780B582B000AF78600B46FB7081
:102F7000FB7823F00403DBB278684FF6FF711A4642
:102F8000FFF7A4F80837BD4680BD00BF80B584B008
:102F900000AF7860094801F043F90346FB73FB7BFF
:102FA000002B05D17B685B685B6898470023FB7347
:102FB000FB7B18461037BD4680BD00BF4CCCFF1FC1
:102FC00080B588B000AFF860B9607A600223FB7703
:102FD000FB689B687B61BB68002B4CD07B68002B37
:102FE00049D07B699B7F83F00103DBB2002B41D08A
:102FF000FB689B689B68082B02D90223BB6101E038
:103000000123BB617B69BA685A61BB69013B1A46FF
:103010007B6803FA02F27B691A607B6900225A60BE
:103020007B6901229A77FB685B6893F87C30002B00
:103030000CD0FB681B681846FFF732FFFB681B6863
:1030400018464FF08041FFF705FF06E0FB681B685C
:1030500018464FF40051FFF7A9FE0023FB77FB68E9
:103060001A68FB685B6893F8863010461946FFF7CC
:10307000DDFE02E001E00323FB77FB7F18462037EB
:10308000BD4680BD80B584B000AF786039607B6894
:103090009B68FB6000237B813DE0FB681A69FB684D
:1030A000DB689A4218D27B681B681846FFF746F81F
:1030B00003467B81FB689A69FB681B691A4407F128
:1030C0000A03104619463A6806F020FBFB681A69A5
:1030D0003B681A44FB681A61FB681A69FB68DB6885
:1030E0009A4218D1FB680022DA77FB68002283F845
:1030F00020207B681B6818464FF0C041FFF70AFF8D
:103100007B685B685B6F002B04D07B685B685B6FE0
:1031100098470BE00AE07B681B681846FFF70EFF34
:10312000034683F00103DBB2002BB6D11037BD4656
:1031300080BD00BF80B586B000AF78607B689B68BB
:103140003B613B695A683B691B689A4280F0898001
:103150007B689B689B68082B02D902237B6101E096
:1031600001237B610023FB817B685B6893F87C30E3
:10317000002B45D038E03B695A683B691B689A428E
:1031800030D23B6993F82030002B0ED07B681A6850
:103190003B691B7F10461946FFF7E4FE3B695A68FE
:1031A0007B691A443B695A601EE03B695A693B6976
:1031B0005B68134407F10E02104619467A6906F05F
:1031C000A5FA3B695A687B691A443B695A607B6877
:1031D0001968FA893B691B7F084611461A46FEF7B3
:1031E00075FF01E000BF78E07B681B681846FFF7B9
:1031F00069FE034683F00103DBB2002BBBD16CE018
:103200003B6993F82030002B0ED07B681A683B692D
:103210001B7F10461946FFF7A5FE3B695A687B697C
:103220001A443B695A6058E03B695A693B695B68DC
:10323000134407F10E02104619467A6906F066FA41
:103240003B695A687B691A443B695A607B68196814
:10325000FA893B691B7F084611461A46FEF736FF7E
:103260003BE07B681B681846FFF740FE0346002BD7
:1032700033D07B685B6893F87C30002B07D07B6889
:103280001B6818464FF08041FFF7F6FD06E07B68AB
:103290001B6818464FF40051FFF798FD00BF7B688C
:1032A0001B681846FFF7A4FD0346802BF7D03B6947
:1032B00000229A773B6900225A617B685B681B6F2A
:1032C000002B0AD03B69DB7F83F00103DBB2002BCC
:1032D00003D07B685B681B6F98471837BD4680BD7D
:1032E00080B586B000AF78607B689B683B61002347
:1032F000FB817B689B689B68082B02D902237B615A
:1033000001E001237B617B685B6893F87D30002BD3
:1033100013D078687969FFF7B5FE3B691A693B6994
:10332000DB689A427BD23B69DA683B691B69D31A36
:103330007868194600F076F871E07B681B681846DB
:10334000FFF766FD034603F40053002B1ED03B69D4
:103350001A693B69DB689A4218D27B681B68184679
:10336000FEF7ECFE0346FB813B699A693B691B69EA
:103370001A4407F10E03104619467A6906F0C6F999
:103380003B691A697B691A443B691A617B681B684F
:103390001846FFF73DFD034603F48043002B1ED083
:1033A0003B691A693B69DB689A4218D27B681B68E3
:1033B0001846FEF7C3FE0346FB813B699A693B69E9
:1033C0001B691A4407F10E03104619467A6906F084
:1033D0009DF93B691A697B691A443B691A613B692B
:1033E0001A693B69DB689A4219D17B681B681846E9
:1033F0004FF44041FFF7EAFC3B690022DA773B6972
:10340000002283F820203B6900229A617B685B6878
:103410005B6F002B03D07B685B685B6F9847183746
:10342000BD4680BD80B584B000AF786039607B68F0
:103430005B6893F87D30002B28D03B68002B25D0AB
:103440007B685B6893F87D301A4601239340BB602C
:103450007B689B689B68082B02D93B685B083B60D4
:103460003A68BB689A4203D23B68013BFB6002E0CA
:10347000BB68013BFB607B681A687B685B6893F8FC
:103480007D3010461946FA68FEF744FF1037BD46F6
:1034900080BD00BF80B400AF044BDB6803F4E06381
:1034A0001B0A1846BD465DF8047B704700ED00E03E
:1034B00080B483B000AF0346FB71084997F9073029
:1034C0005B09FA7902F01F02012000FA02F241F8CA
:1034D00023200C37BD465DF8047B704700E100E017
:1034E00080B483B000AF03463960FB7197F90730B1
:1034F000002B0BDA0D49FB7903F00F03043B3A680C
:10350000D2B29200D2B20B441A7609E0084997F978
:1035100007303A68D2B29200D2B20B4483F800234B
:103520000C37BD465DF8047B704700BF00ED00E03E
:1035300000E100E080B489B000AFF860B9607A6063
:10354000FB6803F00703FB61FB69C3F10703062B6C
:1035500028BF0623BB61FB690633062B02D9FB6932
:10356000013B00E000237B61BB69012202FA03F307
:10357000013B1A46BB681A407B699A407B6901216E
:1035800001FA03F3013B19467B680B4013431846CD
:103590002437BD465DF8047B704700BF80B483B01C
:1035A00000AF78600B46FB701346BB70F878FB7871
:1035B0007A6806339B0013445B6823F00702BB78EC
:1035C0001A437968831D9B000B445A600C37BD4633
:1035D0005DF8047B704700BF80B483B000AF7860B3
:1035E0000B46FB707B685B6B23F07062FB78013BE2
:1035F0001B061A437B685A630C37BD465DF8047B93
:10360000704700BF80B483B000AF78600B46FB709A
:103610007B685B6B23F47C12FB78013B1B041A4331
:103620007B685A630C37BD465DF8047B704700BF6A
:1036300080B485B000AFF860B9607A60FB685B6900
:1036400023F05042BB681A437B681A43FB685A61F7
:103650001437BD465DF8047B704700BF80B483B06B
:1036600000AF78600B46FB707B681B6C23F00F0289
:10367000FB781A437B681A640C37BD465DF8047BFF
:10368000704700BF80B582B000AF786078680121D4
:10369000FFF7E4FF0837BD4680BD00BF80B483B0AC
:1036A00000AF78607B685B6B43F001027B685A6314
:1036B0000C37BD465DF8047B704700BF80B483B013
:1036C00000AF786039607B685B6923F4FE423B6839
:1036D000013B9B02134343F480727B685A610C37B1
:1036E000BD465DF8047B704780B584B000AFF860DC
:1036F000B9607A60F868B9687A68FFF799FF10379F
:10370000BD4680BD80B582B000AF78600B46FB70CF
:10371000FB7878681946FFF75FFF0837BD4680BD24
:1037200080B582B000AF78600B46FB70FB7878689C
:103730001946FFF767FF0837BD4680BD80B582B0E8
:1037400000AF78600B46FB701346BB70FB787A685D
:1037500006339B00134410225A60FA78BB787868CD
:1037600011461A46FFF71AFF0837BD4680BD00BF55
:1037700080B500AF37483849FEF75EFC3548FFF7A3
:103780008DFF34481021FFF7BDFF32481021FFF7AD
:10379000C7FF304800210022FFF7A6FF2D48022175
:1037A000FFF78CFF2B4800210122FFF7C7FF2948B4
:1037B000FFF768FF29480521294AFCF71FFE274823
:1037C00005210022FEF7F6FB24480421254AFCF7D8
:1037D00015FE22480321244AFCF710FE1D484FF431
:1037E0008031FEF75DFC1B4808210122FEF7B4FD85
:1037F00018480C210122FEF7AFFD164800210322D4
:103800000123FEF75FFD134810210322FEF7C0FDE0
:10381000FFF740FE034618463F210022FFF78AFECD
:10382000034657201946FFF75BFEFFF733FE0346BA
:1038300018463E210022FFF77DFE0346552019461B
:10384000FFF74EFE5720FFF733FE5520FFF730FEFF
:1038500080BD00BF000203407CCAFF1F00820248F7
:1038600068CAFF1F98970008B497000880B500AF9A
:103870000148FFF75FFC80BDA8CAFF1F80B500AFFD
:103880000148FFF72DFD80BDA8CAFF1F80B400AF1F
:10389000044BDB6803F4E0631B0A1846BD465DF881
:1038A000047B704700ED00E080B483B000AF0346B6
:1038B000FB71084997F907305B09FA7902F01F029A
:1038C000012000FA02F241F823200C37BD465DF8D2
:1038D000047B704700E100E080B483B000AF034692
:1038E0003960FB7197F90730002B0BDA0D49FB7932
:1038F00003F00F03043B3A68D2B29200D2B20B44F9
:103900001A7609E0084997F907303A68D2B292006E
:10391000D2B20B4483F800230C37BD465DF8047B1C
:10392000704700BF00ED00E000E100E080B489B026
:1039300000AFF860B9607A60FB6803F00703FB61D1
:10394000FB69C3F10703062B28BF0623BB61FB6994
:103950000633062B02D9FB69013B00E000237B61A3
:10396000BB69012202FA03F3013B1A46BB681A4005
:103970007B699A407B69012101FA03F3013B1946F7
:103980007B680B40134318462437BD465DF8047B23
:10399000704700BF80B582B000AF78607B681B784D
:1039A0005BB21846FFF780FF0837BD4680BD00BFF9
:1039B00090B585B000AF7860164800F031FC034642
:1039C000FB73FB7B002B1ED17B681C78FFF75EFF2F
:1039D00001467B685B781A467B689B7808461146EF
:1039E0001A46FFF7A3FF024663B218461146FFF7D7
:1039F00073FF7B68DB78002B02D07868FFF7CAFF83
:103A00000023FB7301E00123FB73FB7B1846143793
:103A1000BD4690BD4CCCFF1F80B400AF044BDB68AB
:103A200003F4E0631B0A1846BD465DF8047B70474B
:103A300000ED00E080B483B000AF0346FB7108499D
:103A400097F907305B09FA7902F01F02012000FAAA
:103A500002F241F823200C37BD465DF8047B704725
:103A600000E100E080B483B000AF03463960FB7131
:103A700097F90730002B0BDA0D49FB7903F00F03A0
:103A8000043B3A68D2B29200D2B20B441A7609E0F3
:103A9000084997F907303A68D2B29200D2B20B4483
:103AA00083F800230C37BD465DF8047B704700BFE8
:103AB00000ED00E000E100E080B489B000AFF86004
:103AC000B9607A60FB6803F00703FB61FB69C3F12F
:103AD0000703062B28BF0623BB61FB690633062BB1
:103AE00002D9FB69013B00E000237B61BB69012235
:103AF00002FA03F3013B1A46BB681A407B699A40FD
:103B00007B69012101FA03F3013B19467B680B40F5
:103B1000134318462437BD465DF8047B704700BF49
:103B200090B583B000AF78607B681B7A83F00103A7
:103B3000DBB2002B27D07B681B681846FDF70AFE16
:103B4000134800F06DFB7B685C7AFFF765FF014668
:103B50007B685B681B781A467B685B685B78084605
:103B600011461A46FFF7A8FF024663B218461146EF
:103B7000FFF778FF7B685B7A5BB21846FFF75AFF66
:103B80007B6801221A72002318460C37BD4690BD8F
:103B90004CCCFF1F80B500AF0148FEF70BF980BD8C
:103BA0000040015080B483B000AF78607B68DB6870
:103BB00043F480727B68DA600C37BD465DF8047BA5
:103BC000704700BF80B582B000AF78607B685B7BD8
:103BD00083F00103DBB2002B0FD07B689A687B680F
:103BE0001B7B10461946FDF705F97B689B68184654
:103BF000FFF7D8FF7B6801225A7300231846083765
:103C0000BD4680BD80B483B000AF786039607B680A
:103C1000D3F880203B681033194601238B401A43A8
:103C20007B68C3F880200C37BD465DF8047B704785
:103C300080B584B000AF78607B681B7C022B49D1D3
:103C40007B68DA687B689B6810461946FEF72AFC99
:103C50000023FB602FE07B68FA6853F82230196874
:103C60007B68FA6853F822305B6808461946FEF70D
:103C7000BBFC7B68FA6853F822301B6818460321A6
:103C8000FEF742FD7B68FA6853F822301B7A83F016
:103C90000103DBB2002B05D07B68DB681846F968AE
:103CA000FFF7B0FF7B68FA6853F8223000225A729F
:103CB000FB680133FB60FB68012BCCD97B685B7C24
:103CC000002B04D07B68DB681846FEF739FC7B6864
:103CD00000221A747B681B7C18461037BD4680BDD5
:103CE00080B584B000AF78607B681B681846FFF72A
:103CF00017FF7B681B6819687B681A7B7B685B68A9
:103D0000084611461A46FDF7FBFD0346002B06D177
:103D10007B689B68786898470023FB7301E0012368
:103D2000FB73FB7B18461037BD4680BD80B485B061
:103D300000AFF8600B467A60FB72FB7AFA68582194
:103D400001FB03F313447A681A601437BD465DF82B
:103D5000047B704780B485B000AFF8600B467A6092
:103D6000FB72FB7AFA68582101FB03F31344083312
:103D70007A681A601437BD465DF8047B704700BF4F
:103D800080B485B000AFF8600B467A60FB72FB7AB6
:103D9000FA68582101FB03F3134418337A685A6018
:103DA0001437BD465DF8047B704700BF80B582B014
:103DB00000AF78607B681B6819687B681A7B7B683A
:103DC0005B689B6A084611461A46FDF789FF7B68C7
:103DD0001B6819687B681A7B7B685B685B6A0846AE
:103DE00011461A46FDF7D2FF7B681B681A687B688C
:103DF0001B7B104619464FF48062FFF7C1FF7B68BA
:103E00001B6819687B681A7B0A4B1B6808461146B9
:103E10001A46FFF78BFF7B681B6819687B681A7B63
:103E2000054B1B68084611461A46FFF793FF0837F3
:103E3000BD4680BD0CEEFF1F0CCDFF1F80B582B0CC
:103E400000AF78607B681B681A687B681B7B104634
:103E500019464FF48062FFF793FF7B681B6819686F
:103E60007B681A7B0A4B1B68084611461A46FFF707
:103E70005DFF7B681B6819687B681A7B054B1B68B4
:103E8000084611461A46FFF765FF0837BD4680BD54
:103E900008D6FF1F08CDFF1F80B582B000AF786045
:103EA0007B6859687B681A7A7B681B6808461146EC
:103EB0001A46FCF7A3FA002318460837BD4680BD12
:103EC00080B483B000AF78607B689B6843F40042A5
:103ED0007B689A600C37BD465DF8047B704700BF75
:103EE00080B483B000AF78600B46FB7013463B8014
:103EF000FB783A88796804339B000B445A600C378E
:103F0000BD465DF8047B704780B485B000AFF860B3
:103F10000B467A60FB72F87AFB7AFA68DB0013448E
:103F20005B6823F4E0027B681A43F968C3000B4422
:103F30005A601437BD465DF8047B704780B483B087
:103F400000AF78600B46FB70F878FB787A68DB008E
:103F500013445B6843F080427968C3000B445A60A5
:103F60000C37BD465DF8047B704700BF80B483B05A
:103F700000AF78600B46FB701346BB70F878FB7897
:103F80007A68DB0013449B6823F00F02BB781A4366
:103F90007968C3000B449A600C37BD465DF8047B1A
:103FA000704700BFB0B586B002AF78600023FB73E6
:103FB0007B689B68B3F5401F15D17B6818687B68E8
:103FC00093F822107B685D6A7B681C7C7B68DA68EA
:103FD0007B685B69009201932A462346FDF79EFAAF
:103FE0000346FB7385E07B689B68B3F5801F15D1A2
:103FF0007B681A687B6893F8223010461946FDF7F3
:1040000007FA0346FB737B681A687B6893F82230D3
:10401000104619460022FFF763FF6AE07B689B6841
:10402000B3F5001F25D17B6818687B6893F82210D0
:104030007B68DA687B685B69FDF7FCF90346FB7314
:104040007B6893F82030012B08D17B681A687B6865
:1040500093F8223010461946FFF770FF7B681A6804
:104060007B6893F82230104619460022FFF738FF8C
:104070003FE07B689B68B3F5A00F25D17B6818688B
:104080007B6893F822107B681D8B7B685C8B7B6858
:10409000DA687B685B69009201932A462346FDF744
:1040A000F9F90346FB737B6819687B6893F8222053
:1040B0007B685B681B79C3F30303DBB208461146D8
:1040C0001A46FFF753FF14E07B689B68B3F5800F37
:1040D0000DD17B6818687B6893F822107B68DA68DA
:1040E0007B685B69FDF762FA0346FB7301E000231E
:1040F000FB73FB7B18461037BD46B0BD80B584B05E
:1041000000AF78600023FB737B6819687B6893F8C5
:1041100022207B685B68084611461A46FDF7FCF8CA
:104120007868FFF73FFF0346BB737B6893F828303E
:10413000002B09D17B681A687B6893F822301046FF
:1041400019460022FFF7E0FE7B6893F82130012B2F
:1041500004D17B681B681846FFF7B2FEBB7B002BBF
:1041600001D00123FB73FB7B18461037BD4680BD91
:1041700080B584B000AF78600B467B800023BB81A4
:10418000B7F90230B3F5006F1EDAB7F9023013F554
:10419000006F19DDB7F90230002B05DA7B8803F5D3
:1041A00080539BB2BB8101E07B88BB817B6819682F
:1041B0007B6893F82220BB89084611461A46FFF710
:1041C0008FFE0023FB7301E00223FB73FB7B184689
:1041D0001037BD4680BD00BF80B485B000AF7860A9
:1041E0007B6803F00703FB600C4BDB68BB60BA68BD
:1041F0004FF6FF031340BB60FB681A02BB68134312
:1042000043F0BF6343F40033BB60044ABB68D36030
:104210001437BD465DF8047B704700BF00ED00E039
:1042200080B584B000AF78607B681B7983F00103B0
:10423000DBB2002B0BD07B681B681B781846FFF79E
:10424000CBFF7B6801221A710023FB7301E000237E
:10425000FB73FB7B18461037BD4680BD80B483B02E
:1042600000AF78600B46FB707B68DA68FB78012151
:1042700001FA03F31A437B68DA600C37BD465DF838
:10428000047B704780B483B000AF78607B689B6824
:1042900003F00103002B14BF01230023DBB21846F7
:1042A0000C37BD465DF8047B704700BF80B483B017
:1042B00000AF78607B680122DA600C37BD465DF89C
:1042C000047B704780B483B000AF78607B681B6963
:1042D00043F002027B681A610C37BD465DF8047B2F
:1042E000704700BF80B483B000AF78600B467B801E
:1042F0007A887B685A630C37BD465DF8047B70474B
:1043000080B483B000AF78600B467B807A887B688E
:10431000DA630C37BD465DF8047B704780B483B028
:1043200000AF78607B681B6F9BB218460C37BD46A8
:104330005DF8047B704700BF80B483B000AF786045
:104340000B46FB707B68D3F8A420FB78012101FAAF
:1043500003F31A437B68C3F8A4200C37BD465DF80D
:10436000047B704780B584B000AF78607B6893F8B9
:104370002530FB73FB7B022B40F0B4807B681B680D
:104380001846FFF71FFC0346FB737B689B681846C3
:104390000021FCF739FE7B689B6818460121FCF779
:1043A0007BFD7B689A687B68DB68104601211A46B2
:1043B000FCF7C0FD7B689B7F002B0ED07B689A6862
:1043C0007B681B69104602211A46FCF7B3FD7B6827
:1043D0009B6818460221FCF793FD7B68DB7F002B6E
:1043E00012D07B6899687B68DA7F7B685B690846D6
:1043F00011461A46FCF79EFD7B689A687B68DB7F56
:1044000010461946FCF762FD7B689B6818464FF61C
:10441000FF71FFF767FF7B689A687B689B8B10468C
:104420001946FFF76DFF7B685A687B689B691046E9
:104430001946FCF723FE7B6893F82830002B09D03F
:104440007B689A687B6893F82030104602211A46F0
:1044500000F074F87B6893F82930002B09D07B6852
:104460009A687B6893F82130104600211A4600F0C4
:1044700065F87B6893F82A30002B09D07B689A682E
:104480007B6893F82230104608211A4600F056F84F
:104490007B6893F82B30002B09D07B689A687B6887
:1044A00093F82330104609211A4600F047F87B683C
:1044B00093F82C30002B09D07B689A687B6893F8BE
:1044C000243010460A211A4600F038F87B68002292
:1044D00083F825207B6893F82D30002B02D0786874
:1044E00000F006F8FB7B18461037BD4680BD00BFC4
:1044F00080B582B000AF78607B6893F82530002BE0
:1045000018D17B689B681846FFF7BCFE034683F012
:104510000103DBB2002B0DD07B685A687B6893F8EF
:10452000273010461946FFF799FE7B689B681846AE
:10453000FFF7BCFE0837BD4680BD00BF80B582B026
:1045400000AF78600B46FB701346BB70FB78786851
:104550001946FFF7F1FEFA78BB78786811461A46DB
:10456000FCF79CFD0837BD4680BD00BF80B584B018
:1045700000AF78600123FB737B681B78002B06D1AA
:104580007B685B681846FFF7EDFE0346FB73FB7B19
:1045900018461037BD4680BD80B584B000AF786046
:1045A0000023FB817B681B78002B07D17B685B684D
:1045B0009B681846FFF7B2FE0346FB81FB8918464D
:1045C0001037BD4680BD00BF80B582B000AF7860B7
:1045D0007B681B78002B05D17B685B689B6818465D
:1045E000FFF770FE0837BD4680BD00BF4B1C012B96
:1045F00098BF70472DE9F003911C9B08B1F8048027
:10460000B1F802900A8831F802CC80448144024417
:104610008444D9F80070D8F800601568DCF80040D0
:10462000C9F80060C8F80070CCF800501460D9F8E0
:104630000470D8F804605568DCF80440C9F80460D8
:10464000C8F80470CCF8045054600831013BD5D14F
:10465000BDE8F00370474B1C012B98BF70472DE954
:10466000F003911C9B08B1F80480B1F802900A880D
:1046700031F802CC00EB580800EB590900EB52026C
:1046800000EB5C0CD9F80070D8F800601568DCF815
:104690000040C9F80060C8F80070CCF80050146001
:1046A0000831013BDFD1BDE8F003704790B5A1B000
:1046B00000AF786039607B681B88BB66BB6E9B006F
:1046C0003A6813447B677B685B683B673B687B6643
:1046D0007B6F3B66BB6E5B08BB66BB6E9B003A683C
:1046E0001344FB67BB6E9B007A6F1344BB67BB6EC2
:1046F0009B08FB6696E13B681B68BB633B685B6895
:10470000FB633B689B683B643B68DB687B647B6F57
:104710001B68BB627B6F5B68FB627B6F9B683B6364
:104720007B6FDB687B63FB6F1B68BB61FB6F5B6848
:10473000FB61FB6F9B683B62FB6FDB687B62BB6F5F
:104740001B68BB60BB6F5B68FB60BB6F9B683B61BA
:10475000BB6FDB687B613C68231D3B60BA6BBB6A47
:104760001046194604F0C6F9034623603C68231D31
:104770003B60FA6BFB6A1046194604F0BBF903462E
:1047800023603C68231D3B603A6C3B6B1046194626
:1047900004F0B0F9034623603C68231D3B607A6C4B
:1047A0007B6B1046194604F0A5F903462360BA6BEB
:1047B000BB6A1046194604F09BF90346BB62FA6BCC
:1047C000FB6A1046194604F093F90346FB623A6C03
:1047D0003B6B1046194604F08BF903463B637A6C39
:1047E0007B6B1046194604F083F903467B63FC6F2C
:1047F000231DFB67BA69BB681046194604F07AF9B5
:1048000003462360FC6F231DFB67FA69FB681046B3
:10481000194604F06FF903462360FC6F231DFB6704
:104820003A6A3B691046194604F064F9034623606E
:10483000FC6F231DFB677A6A7B691046194604F0FA
:1048400059F903462360BA68BB691046194604F05B
:104850004FF90346BB60FA68FB691046194604F03D
:1048600047F90346FB603A693B6A1046194604F073
:104870003FF903463B617A697B6A1046194604F0AA
:1048800037F903467B613B6F1A1D3A671B68FB656E
:104890003B6F1A1D3A671B68BB65BB6A1846F96D0A
:1048A00004F030FA03467B65FB6A1846B96D04F0E4
:1048B00029FA03463B65FB6A1846F96D04F022FAB3
:1048C0000346FB64BB6A1846B96D04F01BFA034645
:1048D000BB647C6F231D7B67786D396D04F00AF92A
:1048E000034623607C6F231D7B67F86CB96C04F072
:1048F000FFF803462360BB681846B96D04F002FA5E
:1049000003467B65FB681846F96D04F0FBF9034626
:104910003B65FB681846B96D04F0F4F90346FB6487
:10492000BB681846F96D04F0EDF90346BB64BC6F33
:10493000231DBB67786D396D04F0DAF803462360F8
:10494000BC6F231DBB67F86CB96C04F0D3F8034649
:1049500023603B6F1A1D3A671B68FB653B6F1A1D8E
:104960003A671B68BB653B6B1846F96D04F0CAF9E2
:1049700003467B657B6B1846B96D04F0C3F90346AB
:104980003B657B6B1846F96D04F0BCF90346FB648C
:104990003B6B1846B96D04F0B5F90346BB647C6FF8
:1049A000231D7B67786D396D04F0A4F803462360FE
:1049B0007C6F231D7B67F86CB96C04F099F8034693
:1049C00023603B691846B96D04F09CF903467B658A
:1049D0007B691846F96D04F095F903463B657B69E0
:1049E0001846B96D04F08EF90346FB643B6918461E
:1049F000F96D04F087F90346BB64BC6F231DBB67E8
:104A0000786D396D04F074F803462360BC6F231D84
:104A1000BB67F86CB96C04F06DF803462360FB6E5D
:104A2000013BFB66FB6E002B7FF465AEBB6E9AB25A
:104A30007B685B68786E11461A46022300F0DCFE44
:104A4000BB6E9AB27B685B68386E11461A460223C9
:104A500000F0D2FE8437BD4690BD00BF90B5ADB02A
:104A600000AF786039607B681B885B089BB2C7F831
:104A70008030D7F880309B003A681344C7F89030F4
:104A8000D7F880309B00D7F890201344C7F88C30BB
:104A9000D7F880309B00D7F88C201344C7F88830B3
:104AA0003B68FB67D7F89030BB67D7F88C307B67E3
:104AB000D7F888303B67D7F89030043BC7F8AC3064
:104AC000D7F88C30043BC7F8A830D7F88830043BBF
:104AD000C7F8A430D7F880309B00D7F8A42013443F
:104AE000C7F8A0307B685B68C7F89430D7F894307B
:104AF000C7F89830D7F89830C7F89C30D7F880308E
:104B00005B08C7F880300223FB660423BB660623DC
:104B10007B663B681A68D7F88C301B6810461946CC
:104B200003F0E8FF03463B663B681A68D7F88C3011
:104B30001B681046194603F0DBFF0346FB653B6824
:104B400004331A68D7F88C3004331B6810461946B2
:104B500003F0D0FF0346BB653B6804331A68D7F8FF
:104B60008C3004331B681046194603F0C1FF03461E
:104B70007B65D7F8903004331B681846F96D03F055
:104B8000B9FF03461A46D7F8883004331B6810462D
:104B9000194603F0ADFF0346FB62D7F890301B685F
:104BA000786D194603F0A4FF03461A46D7F88830FB
:104BB0001B681046194603F09DFF03463B63D7F878
:104BC00090301B68386E194603F092FF03461A4670
:104BD000D7F888301B681046194603F089FF034652
:104BE000FB61D7F8903004331B68B86D194603F0A9
:104BF0007FFF03461A46D7F8883004331B681046F7
:104C0000194603F075FF03463B62D7F89030043332
:104C10001B68F86D194603F06BFF03461A46D7F878
:104C2000883004331B681046194603F063FF0346BF
:104C3000FB60D7F890301B681846796D03F05AFF77
:104C400003461A46D7F888301B681046194603F009
:104C50004FFF03463B613C68231D3B60D7F8903013
:104C60001B681846396E03F045FF03461A46D7F80D
:104C700088301B681046194603F03CFF034623604A
:104C80003C68231D3B60D7F8903004331B681846FE
:104C9000B96D03F02FFF03461A46D7F88830043366
:104CA0001B681046194603F025FF03462360D7F81A
:104CB00090301A1DC7F89020FA6A1A60D7F8903021
:104CC0001A1DC7F890203A6B1A60D7F88C301A1D5D
:104CD000C7F88C20FA691A60D7F88C301A1DC7F80B
:104CE0008C203A6A1A60D7F888301A1DC7F88820D5
:104CF000FA681A60D7F888301A1DC7F888203A6910
:104D00001A60FB6E9B00D7F89C201344C7F89C30B8
:104D1000BB6E9B00D7F898201344C7F898307B6E81
:104D20009B00D7F894201344C7F89430D7F880300C
:104D3000023B5B08C7F884300BE33B681A68D7F87E
:104D40008C301B681046194603F0D4FE03463B66C0
:104D50003B681A68D7F88C301B681046194603F078
:104D6000C7FE0346FB653B6804331A68D7F88C30EE
:104D700004331B681046194603F0BCFE0346BB65AE
:104D80003B6804331A68D7F88C3004331B6810462C
:104D9000194603F0ADFE03467B65D7F89030043327
:104DA0001B681846F96D03F0A5FE03461A46D7F8AE
:104DB000883004331B681046194603F099FE0346F9
:104DC000FB62D7F890301B68786D194603F090FEAF
:104DD00003461A46D7F888301B681046194603F078
:104DE00089FE03463B63D7F890301B68386E19463E
:104DF00003F07EFE03461A46D7F888301B6810463B
:104E0000194603F075FE0346FB61D7F89030043372
:104E10001B68B86D194603F06BFE03461A46D7F8B7
:104E2000883004331B681046194603F061FE0346C0
:104E30003B62D7F8903004331B68F86D194603F0D5
:104E400057FE03461A46D7F8883004331B681046CD
:104E5000194603F04FFE0346FB60D7F890301B68FD
:104E60001846796D03F046FE03461A46D7F8883097
:104E70001B681046194603F03BFE03463B613C6845
:104E8000231D3B60D7F890301B681846396E03F03D
:104E900031FE03461A46D7F888301B68104619467B
:104EA00003F028FE034623603C68231D3B60D7F8CF
:104EB000903004331B681846B96D03F01BFE03469F
:104EC0001A46D7F8883004331B681046194603F099
:104ED00011FE03462360D7F8AC30043B1A68D7F8BC
:104EE000A430043B1B681046194603F003FE03463A
:104EF000BB65D7F8AC30043B1A68D7F8A430043B44
:104F00001B681046194603F0F3FD03467B65D7F88E
:104F1000AC301A68D7F8A4301B681046194603F065
:104F2000E9FD03463B66D7F8AC301A68D7F8A430E1
:104F30001B681046194603F0DBFD0346FB65D7F8F6
:104F4000A8301A68D7F8A0301B681046194603F03D
:104F5000CFFD03461846796D03F0CCFD03467B6315
:104F6000D7F8AC301A68D7F8A4301B681046194639
:104F700003F0BEFD03461A46D7F8A830043B1B6871
:104F80001046194603F0B4FD03461A46D7F8A03080
:104F9000043B1B681046194603F0ACFD0346BB6397
:104FA000D7F8A830043B1B68B86D194603F0A0FD84
:104FB00003461A46D7F8A030043B1B681046194632
:104FC00003F096FD03467B62D7F8A8301B68386E65
:104FD000194603F08DFD03461A46D7F8A0301B682A
:104FE0001046194603F084FD0346BB62D7F8A8308B
:104FF0001A68D7F8A0301B681046194603F078FDF0
:1050000003461846796D03F073FD03467B61D7F8BC
:10501000A030043B1A68D7F8A830043B1B68104640
:10502000194603F065FD03461846F96D03F060FD6F
:105030000346BB61D7F8AC40231FC7F8AC30D7F8A4
:10504000A8301B681846396E03F054FD03461A4613
:10505000D7F8A0301B681046194603F04BFD0346F5
:105060002360D7F8AC40231FC7F8AC30D7F8A8307E
:10507000043B1B681846B96D03F03CFD03461A4615
:10508000D7F8A030043B1B681046194603F032FDE8
:1050900003462360D7F89C301A1DC7F89C201B6874
:1050A0003B65D7F89C301A1DC7F89C201B68FB6431
:1050B000FB6A1846396D03F025FE0346BB643B6B63
:1050C0001846F96C03F01EFE03467B643B6B1846E2
:1050D000396D03F017FE03463B64FB6A1846F96C12
:1050E00003F010FE0346FB63D7F89040231DC7F87A
:1050F0009030B86C796C03F0FDFC03462360D7F860
:105100009040231DC7F89030386CF96B03F0F0FC29
:1051100003462360BB6B1846F96C03F0F3FD0346AE
:10512000BB647B6B1846396D03F0ECFD03467B6472
:105130007B6B1846F96C03F0E5FD03463B64BB6BE3
:105140001846396D03F0DEFD0346FB63D7F8A8402F
:10515000231FC7F8A830B86C796C03F0C9FC03466C
:105160002360D7F8A840231FC7F8A830386CF96B24
:1051700003F0C0FC03462360D7F898301B683B65FA
:10518000D7F898305B68FB64BB6E9B00D7F898201B
:105190001344C7F89830FB691846396D03F0B2FD27
:1051A0000346BB643B6A1846F96C03F0ABFD03464B
:1051B0007B643B6A1846396D03F0A4FD03463B64EB
:1051C000FB691846F96C03F09DFD0346FB63D7F8B5
:1051D0008C40231DC7F88C30B86C796C03F08AFCC6
:1051E00003462360D7F88C40231DC7F88C30386CF9
:1051F000F96B03F07DFC03462360BB6A83F0004338
:105200001846396D03F07EFD0346BB647B6A184681
:10521000F96C03F077FD03467B647B6A1846396DB1
:1052200003F070FD03463B64BB6A1846F96C03F05B
:1052300069FD0346FB63D7F8A440231FC7F8A430D9
:10524000B86C796C03F054FC03462360D7F8A44093
:10525000231FC7F8A430F86B396C03F049FC0346F0
:105260002360D7F894301B683B65D7F894305B68AF
:10527000FB647B6E9B00D7F894201344C7F89430EE
:10528000FB681846396D03F03DFD0346BB643B697E
:105290001846F96C03F036FD03467B643B691846FB
:1052A000396D03F02FFD03463B64FB681846F96C2B
:1052B00003F028FD0346FB63D7F88840231DC7F899
:1052C0008830B86C796C03F015FC03462360D7F87E
:1052D0008840231DC7F88830386CF96B03F008FC50
:1052E00003462360BB691846F96C03F00BFD0346C7
:1052F000BB647B691846396D03F004FD03467B648B
:105300007B691846F96C03F0FDFC03463B64BB69FE
:105310001846396D03F0F6FC0346FB63D7F8A0404E
:10532000231FC7F8A030B86C796C03F0E1FB03468B
:105330002360D7F8A040231FC7F8A030386CF96B62
:1053400003F0D8FB03462360D7F88430013BC7F84D
:105350008430D7F88430002B7FF4EFAC3B681A68B8
:10536000D7F88C301B681046194603F0C3FB034680
:105370003B663B681A68D7F88C301B6810461946A4
:1053800003F0B6FB0346FB653B6804331A68D7F8A5
:105390008C3004331B681046194603F0ABFB034600
:1053A000BB653B6804331A68D7F88C3004331B683C
:1053B0001046194603F09CFB03467B65D7F89030F6
:1053C00004331B681846F96D03F094FB03461A4634
:1053D000D7F8883004331B681046194603F088FB61
:1053E0000346FB62D7F890301B68786D194603F0CE
:1053F0007FFB03461A46D7F888301B6810461946CB
:1054000003F078FB03463B63D7F890301B68386E97
:10541000194603F06DFB03461A46D7F888301B681F
:105420001046194603F064FB0346FB61D7F8903041
:1054300004331B68B86D194603F05AFB03461A463D
:10544000D7F8883004331B681046194603F050FB28
:1054500003463B62D7F8903004331B68F86D194659
:1054600003F046FB03461A46D7F8883004331B681E
:105470001046194603F03EFB0346FB60D7F8903018
:105480001B681846796D03F035FB03461A46D7F8BA
:1054900088301B681046194603F02AFB03463B611F
:1054A0003C68231D3B60D7F890301B681846396E66
:1054B00003F020FB03461A46D7F888301B681046D5
:1054C000194603F017FB034623603C68231D3B602D
:1054D000D7F8903004331B681846B96D03F00AFB07
:1054E00003461A46D7F8883004331B68104619461D
:1054F00003F000FB03462360D7F89C301B683B6534
:10550000D7F89C305B68FB64FB6A1846396D03F082
:10551000F9FB0346BB643B6B1846F96C03F0F2FBE6
:1055200003467B643B6B1846396D03F0EBFB034687
:105530003B64FB6A1846F96C03F0E4FB0346FB632B
:10554000D7F89040231DC7F89030B86C796C03F001
:10555000D1FA03462360D7F89040231DC7F8903056
:10556000386CF96B03F0C4FA03462360D7F898301F
:105570001B683B65D7F898305B68FB64FB6918468D
:10558000396D03F0BFFB0346BB643B6A1846F96CF8
:1055900003F0B8FB03467B643B6A1846396D03F0A1
:1055A000B1FB03463B64FB691846F96C03F0AAFBA8
:1055B0000346FB63D7F88C40231DC7F88C30B86CCA
:1055C000796C03F097FA03462360D7F88C40231DCB
:1055D000C7F88C30386CF96B03F08AFA0346236005
:1055E000D7F894301B683B65D7F894305B68FB6450
:1055F000FB681846396D03F085FB0346BB643B69C5
:105600001846F96C03F07EFB03467B643B69184641
:10561000396D03F077FB03463B64FB681846F96C71
:1056200003F070FB0346FB63D7F88840231DC7F8DF
:105630008830B86C796C03F05DFA03462360D7F8C4
:105640008840231DC7F88830386CF96B03F050FA96
:1056500003462360D7F880309AB27B685B68F86FA6
:1056600011461A46042300F0C7F8D7F880309AB2E2
:105670007B685B68B86F11461A46042300F0BCF8DB
:10568000D7F880309AB27B685B68786F11461A460B
:10569000042300F0B1F8D7F880309AB27B685B68D9
:1056A000386F11461A46042300F0A6F8B437BD46F9
:1056B00090BD00BF90B589B000AFF860B9601146E9
:1056C0001A460B46FB711346BB71FB681B887B6156
:1056D000FB79012B15D1BB680433BB610023FB614F
:1056E0000BE0BB691B6883F00042BB691A60BB69B1
:1056F0000833BB61FB690133FB61FA697B699A423C
:10570000EFD37B69B3F5807F24D0B3F5807F0BD8CE
:10571000202B1FD0202B02D8102B16D02AE0402B94
:105720001DD0802B11D025E0B3F5806F0DD0B3F5DF
:10573000806F03D8B3F5007F11D01BE0B3F5006F85
:1057400008D0B3F5805F0AD014E0F868B968FEF7B6
:10575000ADFF0FE0F868B968FFF780F90AE07B69F0
:105760009AB2FB685B68B86811461A46012300F0DC
:1057700043F800BFBB79002B08D0FB689A89FB680F
:105780009B68B86811461A46FEF730FFFB79012B7B
:105790002FD1786903F05EFA03464FF07E50194628
:1057A00003F064FB03463B61BB68BB610023FB6104
:1057B0001BE0BC69231DBB6123681846396903F0EF
:1057C000A1FA03462360BB691B6883F000431846B7
:1057D000396903F097FA03461A46BB691A60BB6938
:1057E0000433BB61FB690133FB61FA697B699A424F
:1057F000DFD32437BD4690BD90B5BDB000AFF86093
:105800007A601A460B467B8113463B81094BC7F8E9
:10581000DC307B89C7F8E430D7F8E430C7F8D830FB
:10582000D7F8E430DB08C7F8E4300023C7F8E830E5
:1058300002E000BFF304353FD7F8E820D7F8E430A2
:105840001344C7F8D430D7F8D420D7F8E430134441
:10585000C7F8D030D7F8D020D7F8E4301344C7F8D1
:10586000CC30D7F8CC20D7F8E4301344C7F8C83090
:10587000D7F8C820D7F8E4301344C7F8C430D7F8B5
:10588000C420D7F8E4301344C7F8C030D7F8C0209C
:10589000D7F8E4301344C7F8BC30D7F8E830DB0061
:1058A000FA6813441968D7F8C830DB00FA68134463
:1058B0001B680846194603F01DF90346C7F8B830BF
:1058C000D7F8E830DB00FA6813441968D7F8C83015
:1058D000DB00FA6813441B680846194603F008F910
:1058E0000346C7F8B430D7F8D430DB00FA68134465
:1058F0001968D7F8C430DB00FA6813441B680846FF
:10590000194603F0F7F80346C7F8B030D7F8D4309B
:10591000DB00FA6813441968D7F8C430DB00FA6872
:1059200013441B680846194603F0E2F80346C7F81B
:10593000AC30D7F8D030DB00FA6813441968D7F8D8
:10594000C030DB00FA6813441B680846194603F0B0
:10595000D1F80346C7F8A830D7F8D030DB00FA6892
:1059600013441968D7F8C030DB00FA6813441B6889
:105970000846194603F0BCF80346C7F8A430D7F828
:10598000CC30DB00FA6813441968D7F8BC30DB0070
:10599000FA6813441B680846194603F0ABF803463F
:1059A000C7F8A030D7F8CC30DB00FA681344196888
:1059B000D7F8BC30DB00FA6813441B680846194668
:1059C00003F096F80346C7F89C30D7F8B800D7F82C
:1059D000A81003F08DF80346C7F89830D7F8B80040
:1059E000D7F8A81003F086F80346C7F8B830D7F800
:1059F000B000D7F8A01003F07BF80346C7F8A83032
:105A0000D7F8B000D7F8A01003F074F80346C7F831
:105A1000B030D7F8E830DB00FA68D418D7F8B8000F
:105A2000D7F8B01003F066F803462360D7F8C83003
:105A3000DB00FA68D418D7F8B800D7F8B01003F034
:105A400057F803462360D7F8E830DB000433FA68E0
:105A500013441968D7F8C830DB000433FA681344DC
:105A60001B680846194603F045F80346C7F8B830E6
:105A7000D7F8E830DB000433FA6813441968D7F824
:105A8000C830DB000433FA6813441B680846194623
:105A900003F02EF80346C7F89430D7F8D430DB0073
:105AA0000433FA6813441968D7F8C430DB000433B0
:105AB000FA6813441B680846194603F01BF80346AE
:105AC000C7F8B030D7F8D430DB000433FA68134499
:105AD0001968D7F8C430DB000433FA6813441B6834
